{
  "contractName": "Factory",
  "abi": [
    {
      "inputs": [
        {
          "internalType": "address",
          "name": "_masterContract",
          "type": "address"
        }
      ],
      "stateMutability": "nonpayable",
      "type": "constructor"
    },
    {
      "anonymous": false,
      "inputs": [
        {
          "indexed": false,
          "internalType": "address",
          "name": "Spieladdresse",
          "type": "address"
        },
        {
          "indexed": false,
          "internalType": "address",
          "name": "Factoryaddresse",
          "type": "address"
        }
      ],
      "name": "Spielerzeugt",
      "type": "event"
    },
    {
      "inputs": [
        {
          "internalType": "uint256",
          "name": "",
          "type": "uint256"
        }
      ],
      "name": "childrenaddress",
      "outputs": [
        {
          "internalType": "address",
          "name": "",
          "type": "address"
        }
      ],
      "stateMutability": "view",
      "type": "function",
      "constant": true
    },
    {
      "inputs": [],
      "name": "owner",
      "outputs": [
        {
          "internalType": "address",
          "name": "",
          "type": "address"
        }
      ],
      "stateMutability": "view",
      "type": "function",
      "constant": true
    },
    {
      "stateMutability": "payable",
      "type": "receive",
      "payable": true
    },
    {
      "inputs": [],
      "name": "createChild",
      "outputs": [],
      "stateMutability": "nonpayable",
      "type": "function"
    },
    {
      "inputs": [],
      "name": "ETHabheben",
      "outputs": [],
      "stateMutability": "nonpayable",
      "type": "function"
    }
  ],
  "bytecode": "0x608060405234801561001057600080fd5b5060405161069c38038061069c8339818101604052810190610032919061011d565b80600160006101000a81548173ffffffffffffffffffffffffffffffffffffffff021916908373ffffffffffffffffffffffffffffffffffffffff16021790555033600260006101000a81548173ffffffffffffffffffffffffffffffffffffffff021916908373ffffffffffffffffffffffffffffffffffffffff1602179055505061014a565b600080fd5b600073ffffffffffffffffffffffffffffffffffffffff82169050919050565b60006100ea826100bf565b9050919050565b6100fa816100df565b811461010557600080fd5b50565b600081519050610117816100f1565b92915050565b600060208284031215610133576101326100ba565b5b600061014184828501610108565b91505092915050565b610543806101596000396000f3fe6080604052600436106100435760003560e01c806315dde9d31461004f5780638da5cb5b1461008c578063a3a4ba31146100b7578063d0d5f2f5146100ce5761004a565b3661004a57005b600080fd5b34801561005b57600080fd5b50610076600480360381019061007191906103b8565b6100e5565b6040516100839190610426565b60405180910390f35b34801561009857600080fd5b506100a1610124565b6040516100ae9190610426565b60405180910390f35b3480156100c357600080fd5b506100cc61014a565b005b3480156100da57600080fd5b506100e3610218565b005b600081815481106100f557600080fd5b906000526020600020016000915054906101000a900473ffffffffffffffffffffffffffffffffffffffff1681565b600260009054906101000a900473ffffffffffffffffffffffffffffffffffffffff1681565b6000610177600160009054906101000a900473ffffffffffffffffffffffffffffffffffffffff16610313565b90506000819080600181540180825580915050600190039060005260206000200160009091909190916101000a81548173ffffffffffffffffffffffffffffffffffffffff021916908373ffffffffffffffffffffffffffffffffffffffff1602179055507fea06f5410b68bbe891b6f3ae96c8b9de8cf9172d9abdd6672dcebd9c02de4528813060405161020d929190610441565b60405180910390a150565b600260009054906101000a900473ffffffffffffffffffffffffffffffffffffffff1673ffffffffffffffffffffffffffffffffffffffff163373ffffffffffffffffffffffffffffffffffffffff16146102a8576040517f08c379a000000000000000000000000000000000000000000000000000000000815260040161029f906104ed565b60405180910390fd5b600260009054906101000a900473ffffffffffffffffffffffffffffffffffffffff1673ffffffffffffffffffffffffffffffffffffffff166108fc479081150290604051600060405180830381858888f19350505050158015610310573d6000803e3d6000fd5b50565b6000808260601b90506040517f3d602d80600a3d3981f3363d3d373d3d3d363d7300000000000000000000000081528160148201527f5af43d82803e903d91602b57fd5bf3000000000000000000000000000000000060288201526037816000f092505050919050565b600080fd5b6000819050919050565b61039581610382565b81146103a057600080fd5b50565b6000813590506103b28161038c565b92915050565b6000602082840312156103ce576103cd61037d565b5b60006103dc848285016103a3565b91505092915050565b600073ffffffffffffffffffffffffffffffffffffffff82169050919050565b6000610410826103e5565b9050919050565b61042081610405565b82525050565b600060208201905061043b6000830184610417565b92915050565b60006040820190506104566000830185610417565b6104636020830184610417565b9392505050565b600082825260208201905092915050565b7f4e75722064657220536d61727420436f6e7472616374206f776e65722f42657460008201527f7265696265722069737420626572656368746967742100000000000000000000602082015250565b60006104d760368361046a565b91506104e28261047b565b604082019050919050565b60006020820190508181036000830152610506816104ca565b905091905056fea26469706673582212203531de13f9cc7ef68f40264c8888f62e9a837ae8131bac2d23d4fdf66b71a01c64736f6c634300080f0033",
  "immutableReferences": {},
  "source": "// SC fr das Spiel \"Schere, Stein, Papier\" als Ethereum DApp\r\n\r\n// SPDX-License-Identifier: GPL-3.0\r\n\r\npragma solidity ^0.8.7;\r\n\r\ncontract Factory {\r\n\r\n    address[] public childrenaddress;\r\n    address masterContract;\r\n    address public owner;\r\n\r\n    constructor(address _masterContract){\r\n        masterContract = _masterContract;\r\n        owner = msg.sender;\r\n    }\r\n\r\n    event Spielerzeugt(address Spieladdresse, address Factoryaddresse);\r\n\r\n    function createClone(address target) internal returns (address result) {\r\n        bytes20 targetBytes = bytes20(target);\r\n        assembly {\r\n        let clone := mload(0x40)\r\n        mstore(clone, 0x3d602d80600a3d3981f3363d3d373d3d3d363d73000000000000000000000000)\r\n        mstore(add(clone, 0x14), targetBytes)\r\n        mstore(add(clone, 0x28), 0x5af43d82803e903d91602b57fd5bf30000000000000000000000000000000000)\r\n        result := create(0, clone, 0x37)\r\n        }\r\n    }\r\n\r\n    function createChild() external{\r\n        address child = createClone(masterContract);\r\n        childrenaddress.push(child);\r\n        emit Spielerzeugt(child, address(this));\r\n    }\r\n\r\n    function ETHabheben() public  {\r\n        require (msg.sender == owner, \"Nur der Smart Contract owner/Betreiber ist berechtigt!\");\r\n        payable(owner).transfer(address(this).balance);\r\n    }\r\n\r\n    receive() external payable{}\r\n\r\n}\r\n\r\ncontract SchereSteinPapier {\r\n    \r\n    // speichern der Factory-Addresse\r\n    address public FactoryAddress;\r\n\r\n    // speichern der Spieler-Addressen\r\n    address [2] public Spieler;\r\n\r\n    // speichern des Spieleinsatzes\r\n    uint public Einsatz;\r\n\r\n    // speichern des verschlsselten Spiel-Zugs\r\n    bytes32[2] public VerschluesselterZug;\r\n \r\n    // speichern des entschlsselten Spiel-Zugs\r\n    // 0: initial\r\n    // 1: Schere\r\n    // 2: Stein\r\n    // 3: Papier\r\n    uint[2] public Zug;\r\n\r\n    // Spiel Status\r\n    enum Status {Beginn, Wahl, Entscheidung, Auszahlung}\r\n    Status status;\r\n\r\n    // Timer\r\n    uint public stop;\r\n    uint public stop1;\r\n    uint public jetzt;\r\n\r\n    // event fr Einsatz\r\n    event EinsatzIst (uint Einsatz);\r\n\r\n    // event fr Gewinner\r\n    event GewinnerIst (address Gewinner);\r\n\r\n    // event fr Spielstatus\r\n    event Spielstatus (uint Status);\r\n\r\n    // Modifier zum Prfen ob es sich um einen Spieler handelt\r\n    modifier IstSpieler() {\r\n        require (msg.sender == Spieler[0] || msg.sender == Spieler[1], \"Du bist kein Spieler der aktieven Runde!\");\r\n        _;\r\n    }\r\n\r\n    // Konstruktor legt owner fest und initialisiert Variablen\r\n    constructor() public {\r\n        initialisieren();\r\n    }\r\n\r\n    function init(address _FactoryAddress) external {\r\n        FactoryAddress = _FactoryAddress;\r\n    }\r\n\r\n    // Funktion zum initialisieren des Spiels\r\n    function initialisieren() private {\r\n        Spieler[0] = payable(address(0));\r\n        Spieler[1] = payable(address(0));\r\n        VerschluesselterZug[0] = 0;\r\n        VerschluesselterZug[1] = 0;\r\n        Zug[0] = 0;\r\n        Zug[1] = 0;\r\n        status = Status.Beginn;\r\n    }\r\n\r\n    // Funktion zum Spiel-Beitritt\r\n    function spielen() public payable {\r\n        require (status == Status.Beginn, \"Das Spiel hat bereits begonnen!\");\r\n        require (msg.value > 1000000000000000, \"Du musst einen Einsatz (min. 0,001 ETH) setzen; der owner erhaelt 0,000.1 ETH!\");\r\n        if (Spieler[0] == address(0)) {\r\n            Einsatz = msg.value;\r\n            emit EinsatzIst(Einsatz);\r\n            Spieler[0] = payable(msg.sender);\r\n        }\r\n        else if (Spieler[1] == address(0)) {\r\n            require (msg.sender != Spieler[0], \"Du kannst nicht gegen dich selbst spielen!\");\r\n            require (msg.value == Einsatz, \"Dein Spiel-Einsatz muss dem Vorgegebenen entsprechen!\");\r\n            Spieler[1] = payable(msg.sender);\r\n            status = Status.Wahl;\r\n            emit Spielstatus(1);\r\n            stop = block.timestamp + 900;\r\n        }\r\n    }\r\n\r\n    // Funktion zum Whlen von Schere, Stein oder Papier\r\n    function waehlen(bytes32 wahl) public IstSpieler {\r\n        require (status == Status.Wahl, \"Wahl kann noch nicht getroffen werden oder wurde bereits getroffen!\");\r\n        if (msg.sender == Spieler[0]) {\r\n            VerschluesselterZug[0] = wahl;\r\n        }\r\n        else if (msg.sender == Spieler[1]) {\r\n            VerschluesselterZug[1] = wahl;\r\n        }\r\n        if (VerschluesselterZug[0] != 0 && VerschluesselterZug[1] != 0) {\r\n            status = Status.Entscheidung;\r\n            emit Spielstatus(2);\r\n            stop1 = block.timestamp + 900;\r\n        }\r\n    }\r\n\r\n    // Funktion deckt Wahl des Spielers auf\r\n    function wahlentschluesseln(uint wahl, string memory schluessel) public IstSpieler {\r\n        require (status == Status.Entscheidung, \"Die Wahl kann noch nicht aufgedeckt werden!\");\r\n        bytes32 verschluesselt = keccak256(abi.encodePacked(wahl, schluessel)); \r\n        if (msg.sender == Spieler[0]) {\r\n            if (verschluesselt == VerschluesselterZug[0]) {\r\n                Zug[0] = wahl;\r\n            }\r\n        }\r\n        else {\r\n            if (verschluesselt == VerschluesselterZug[1]) {\r\n                Zug[1] = wahl;\r\n            }\r\n        }\r\n        if (Zug[0] != 0 && Zug[1] != 0) {\r\n            status = Status.Auszahlung;\r\n            entscheidung();\r\n        }\r\n    }\r\n\r\n    // Funktion zur Entscheidungsfindung des Spiels\r\n    function entscheidung() private {\r\n        require (status == Status.Auszahlung);\r\n        if (Zug[0] == 1) {\r\n            if (Zug[1] == 1) {\r\n                payable(Spieler[0]).transfer(Einsatz-100000000000000);\r\n                payable(Spieler[1]).transfer(Einsatz-100000000000000);\r\n                emit GewinnerIst(address(0));\r\n            }\r\n            if (Zug[1] == 2) {\r\n                payable(Spieler[1]).transfer(2*Einsatz-200000000000000);\r\n                emit GewinnerIst(Spieler[1]);\r\n            }\r\n            if (Zug[1] == 3) {\r\n                payable(Spieler[0]).transfer(2*Einsatz-200000000000000);\r\n                emit GewinnerIst(Spieler[0]);\r\n            }\r\n        }\r\n        if (Zug[0] == 2) {\r\n            if (Zug[1] == 1) {\r\n                payable(Spieler[0]).transfer(2*Einsatz-200000000000000);\r\n                emit GewinnerIst(Spieler[0]);\r\n            }\r\n            if (Zug[1] == 2) {\r\n                payable(Spieler[0]).transfer(Einsatz-100000000000000);\r\n                payable(Spieler[1]).transfer(Einsatz-100000000000000);\r\n                emit GewinnerIst(address(0));\r\n            }\r\n            if (Zug[1] == 3) {\r\n                payable(Spieler[1]).transfer(2*Einsatz-200000000000000);\r\n                emit GewinnerIst(Spieler[1]);\r\n            }\r\n        }\r\n        if (Zug[0] == 3) {\r\n            if (Zug[1] == 1) {\r\n                payable(Spieler[1]).transfer(2*Einsatz-200000000000000);\r\n                emit GewinnerIst(Spieler[1]);\r\n            }\r\n            if (Zug[1] == 2) {\r\n                payable(Spieler[0]).transfer(2*Einsatz-200000000000000);\r\n                emit GewinnerIst(Spieler[0]);\r\n            }\r\n            if (Zug[1] == 3) {\r\n                payable(Spieler[0]).transfer(Einsatz-100000000000000);\r\n                payable(Spieler[1]).transfer(Einsatz-100000000000000);\r\n                emit GewinnerIst(address(0));\r\n            }\r\n        }\r\n        payable(FactoryAddress).transfer(address(this).balance); \r\n        initialisieren();\r\n    }\r\n\r\n    // Funktion zum Erstatten des Einsatzes\r\n    function erstatten() public IstSpieler {\r\n        jetzt = block.timestamp;\r\n        require ((status == Status.Wahl && stop < jetzt) || (status == Status.Entscheidung && stop1 < jetzt), \"Du befindest dich im falschen Spiel-Status oder die Zeit ist noch nicht abgelaufen!\");\r\n        if (stop < jetzt) {\r\n            if (VerschluesselterZug[0] == 0) {\r\n                payable(Spieler[1]).transfer(2*Einsatz-200000000000000);\r\n                initialisieren();\r\n            }\r\n            else if (VerschluesselterZug[1] == 0) {\r\n                payable(Spieler[0]).transfer(2*Einsatz-200000000000000);\r\n                initialisieren();\r\n            }\r\n            payable(FactoryAddress).transfer(address(this).balance);\r\n        }\r\n        else if (stop1 < jetzt) {\r\n            if (Zug[0] == 0) {\r\n                payable(Spieler[1]).transfer(2*Einsatz-200000000000000);\r\n                initialisieren();\r\n            }\r\n            else if (Zug[1] == 0) {\r\n                payable(Spieler[0]).transfer(2*Einsatz-200000000000000);\r\n                initialisieren();\r\n            }\r\n            payable(FactoryAddress).transfer(address(this).balance);\r\n        }\r\n    }\r\n}",
  "sourcePath": "C:\\Users\\pierr\\Desktop\\Blockchain\\Blockchain3\\SSPRopsten\\contracts\\SchereSteinPapier.sol",
  "compiler": {
    "name": "solc",
    "version": "0.8.15+commit.e14f2714.Emscripten.clang"
  },
  "schemaVersion": "3.4.7",
  "updatedAt": "2022-07-02T15:03:49.638Z",
  "networkType": "ethereum",
  "devdoc": {
    "kind": "dev",
    "methods": {},
    "version": 1
  },
  "userdoc": {
    "kind": "user",
    "methods": {},
    "version": 1
  }
}