{
  "contractName": "SchereSteinPapier",
  "abi": [
    {
      "inputs": [],
      "stateMutability": "nonpayable",
      "type": "constructor"
    },
    {
      "anonymous": false,
      "inputs": [
        {
          "indexed": false,
          "internalType": "uint256",
          "name": "Einsatz",
          "type": "uint256"
        }
      ],
      "name": "EinsatzIst",
      "type": "event"
    },
    {
      "anonymous": false,
      "inputs": [
        {
          "indexed": false,
          "internalType": "address",
          "name": "Gewinner",
          "type": "address"
        }
      ],
      "name": "GewinnerIst",
      "type": "event"
    },
    {
      "anonymous": false,
      "inputs": [
        {
          "indexed": false,
          "internalType": "uint256",
          "name": "Status",
          "type": "uint256"
        }
      ],
      "name": "Spielstatus",
      "type": "event"
    },
    {
      "inputs": [],
      "name": "Einsatz",
      "outputs": [
        {
          "internalType": "uint256",
          "name": "",
          "type": "uint256"
        }
      ],
      "stateMutability": "view",
      "type": "function"
    },
    {
      "inputs": [],
      "name": "FactoryAddress",
      "outputs": [
        {
          "internalType": "address",
          "name": "",
          "type": "address"
        }
      ],
      "stateMutability": "view",
      "type": "function"
    },
    {
      "inputs": [
        {
          "internalType": "uint256",
          "name": "",
          "type": "uint256"
        }
      ],
      "name": "Spieler",
      "outputs": [
        {
          "internalType": "address",
          "name": "",
          "type": "address"
        }
      ],
      "stateMutability": "view",
      "type": "function"
    },
    {
      "inputs": [
        {
          "internalType": "uint256",
          "name": "",
          "type": "uint256"
        }
      ],
      "name": "VerschluesselterZug",
      "outputs": [
        {
          "internalType": "bytes32",
          "name": "",
          "type": "bytes32"
        }
      ],
      "stateMutability": "view",
      "type": "function"
    },
    {
      "inputs": [
        {
          "internalType": "uint256",
          "name": "",
          "type": "uint256"
        }
      ],
      "name": "Zug",
      "outputs": [
        {
          "internalType": "uint256",
          "name": "",
          "type": "uint256"
        }
      ],
      "stateMutability": "view",
      "type": "function"
    },
    {
      "inputs": [],
      "name": "jetzt",
      "outputs": [
        {
          "internalType": "uint256",
          "name": "",
          "type": "uint256"
        }
      ],
      "stateMutability": "view",
      "type": "function"
    },
    {
      "inputs": [],
      "name": "stop",
      "outputs": [
        {
          "internalType": "uint256",
          "name": "",
          "type": "uint256"
        }
      ],
      "stateMutability": "view",
      "type": "function"
    },
    {
      "inputs": [],
      "name": "stop1",
      "outputs": [
        {
          "internalType": "uint256",
          "name": "",
          "type": "uint256"
        }
      ],
      "stateMutability": "view",
      "type": "function"
    },
    {
      "inputs": [
        {
          "internalType": "address",
          "name": "_FactoryAddress",
          "type": "address"
        }
      ],
      "name": "init",
      "outputs": [],
      "stateMutability": "nonpayable",
      "type": "function"
    },
    {
      "inputs": [],
      "name": "spielen",
      "outputs": [],
      "stateMutability": "payable",
      "type": "function"
    },
    {
      "inputs": [
        {
          "internalType": "bytes32",
          "name": "wahl",
          "type": "bytes32"
        }
      ],
      "name": "waehlen",
      "outputs": [],
      "stateMutability": "nonpayable",
      "type": "function"
    },
    {
      "inputs": [
        {
          "internalType": "uint256",
          "name": "wahl",
          "type": "uint256"
        },
        {
          "internalType": "string",
          "name": "schluessel",
          "type": "string"
        }
      ],
      "name": "wahlentschluesseln",
      "outputs": [],
      "stateMutability": "nonpayable",
      "type": "function"
    },
    {
      "inputs": [],
      "name": "erstatten",
      "outputs": [],
      "stateMutability": "nonpayable",
      "type": "function"
    }
  ],
  "bytecode": "0x60806040523480156200001157600080fd5b50620000226200002860201b60201c565b620001e7565b6000600160006002811062000042576200004162000189565b5b0160006101000a81548173ffffffffffffffffffffffffffffffffffffffff021916908373ffffffffffffffffffffffffffffffffffffffff1602179055506000600180600281106200009a576200009962000189565b5b0160006101000a81548173ffffffffffffffffffffffffffffffffffffffff021916908373ffffffffffffffffffffffffffffffffffffffff1602179055506000801b6004600060028110620000f557620000f462000189565b5b01819055506000801b600460016002811062000116576200011562000189565b5b01819055506000600660006002811062000135576200013462000189565b5b01819055506000600660016002811062000154576200015362000189565b5b01819055506000600860006101000a81548160ff02191690836003811115620001825762000181620001b8565b5b0217905550565b7f4e487b7100000000000000000000000000000000000000000000000000000000600052603260045260246000fd5b7f4e487b7100000000000000000000000000000000000000000000000000000000600052602160045260246000fd5b612d4880620001f76000396000f3fe6080604052600436106100c15760003560e01c806353cc3c9a1161007f578063aaf3c6aa11610059578063aaf3c6aa14610253578063b23b64f814610290578063cf25999e146102bb578063f71aad39146102c5576100c1565b806353cc3c9a146101e8578063922c7316146101ff578063a3ac3ff81461022a576100c1565b80621e20db146100c657806307da68f5146100f15780630e29f8851461011c57806319ab453c14610145578063376b3ca01461016e578063394a0d22146101ab575b600080fd5b3480156100d257600080fd5b506100db6102f0565b6040516100e891906121cf565b60405180910390f35b3480156100fd57600080fd5b506101066102f6565b60405161011391906121cf565b60405180910390f35b34801561012857600080fd5b50610143600480360381019061013e9190612370565b6102fc565b005b34801561015157600080fd5b5061016c6004803603810190610167919061242a565b61060b565b005b34801561017a57600080fd5b5061019560048036038101906101909190612457565b61064e565b6040516101a291906121cf565b60405180910390f35b3480156101b757600080fd5b506101d260048036038101906101cd9190612457565b610669565b6040516101df919061249d565b60405180910390f35b3480156101f457600080fd5b506101fd610684565b005b34801561020b57600080fd5b50610214610c73565b60405161022191906124c7565b60405180910390f35b34801561023657600080fd5b50610251600480360381019061024c919061250e565b610c97565b005b34801561025f57600080fd5b5061027a60048036038101906102759190612457565b610fec565b60405161028791906124c7565b60405180910390f35b34801561029c57600080fd5b506102a5611022565b6040516102b291906121cf565b60405180910390f35b6102c3611028565b005b3480156102d157600080fd5b506102da61140b565b6040516102e791906121cf565b60405180910390f35b60035481565b60095481565b60016000600281106103115761031061253b565b5b0160009054906101000a900473ffffffffffffffffffffffffffffffffffffffff1673ffffffffffffffffffffffffffffffffffffffff163373ffffffffffffffffffffffffffffffffffffffff1614806103cc57506001806002811061037b5761037a61253b565b5b0160009054906101000a900473ffffffffffffffffffffffffffffffffffffffff1673ffffffffffffffffffffffffffffffffffffffff163373ffffffffffffffffffffffffffffffffffffffff16145b61040b576040517f08c379a0000000000000000000000000000000000000000000000000000000008152600401610402906125ed565b60405180910390fd5b6002600381111561041f5761041e61260d565b5b600860009054906101000a900460ff1660038111156104415761044061260d565b5b14610481576040517f08c379a0000000000000000000000000000000000000000000000000000000008152600401610478906126ae565b60405180910390fd5b60008282604051602001610496929190612769565b60405160208183030381529060405280519060200120905060016000600281106104c3576104c261253b565b5b0160009054906101000a900473ffffffffffffffffffffffffffffffffffffffff1673ffffffffffffffffffffffffffffffffffffffff163373ffffffffffffffffffffffffffffffffffffffff160361055557600460006002811061052c5761052b61253b565b5b015481036105505782600660006002811061054a5761054961253b565b5b01819055505b61058f565b600460016002811061056a5761056961253b565b5b0154810361058e578260066001600281106105885761058761253b565b5b01819055505b5b600060066000600281106105a6576105a561253b565b5b0154141580156105cd5750600060066001600281106105c8576105c761253b565b5b015414155b15610606576003600860006101000a81548160ff021916908360038111156105f8576105f761260d565b5b0217905550610605611411565b5b505050565b806000806101000a81548173ffffffffffffffffffffffffffffffffffffffff021916908373ffffffffffffffffffffffffffffffffffffffff16021790555050565b6006816002811061065e57600080fd5b016000915090505481565b6004816002811061067957600080fd5b016000915090505481565b60016000600281106106995761069861253b565b5b0160009054906101000a900473ffffffffffffffffffffffffffffffffffffffff1673ffffffffffffffffffffffffffffffffffffffff163373ffffffffffffffffffffffffffffffffffffffff1614806107545750600180600281106107035761070261253b565b5b0160009054906101000a900473ffffffffffffffffffffffffffffffffffffffff1673ffffffffffffffffffffffffffffffffffffffff163373ffffffffffffffffffffffffffffffffffffffff16145b610793576040517f08c379a000000000000000000000000000000000000000000000000000000000815260040161078a906125ed565b60405180910390fd5b42600b81905550600160038111156107ae576107ad61260d565b5b600860009054906101000a900460ff1660038111156107d0576107cf61260d565b5b1480156107e05750600b54600954105b8061082d5750600260038111156107fa576107f961260d565b5b600860009054906101000a900460ff16600381111561081c5761081b61260d565b5b14801561082c5750600b54600a54105b5b61086c576040517f08c379a000000000000000000000000000000000000000000000000000000000815260040161086390612829565b60405180910390fd5b600b546009541015610a72576000801b60046000600281106108915761089061253b565b5b01540361094057600180600281106108ac576108ab61253b565b5b0160009054906101000a900473ffffffffffffffffffffffffffffffffffffffff1673ffffffffffffffffffffffffffffffffffffffff166108fc65b5e620f4800060035460026108fd9190612878565b61090791906128d2565b9081150290604051600060405180830381858888f19350505050158015610932573d6000803e3d6000fd5b5061093b61206a565b610a06565b6000801b60046001600281106109595761095861253b565b5b015403610a055760016000600281106109755761097461253b565b5b0160009054906101000a900473ffffffffffffffffffffffffffffffffffffffff1673ffffffffffffffffffffffffffffffffffffffff166108fc65b5e620f4800060035460026109c69190612878565b6109d091906128d2565b9081150290604051600060405180830381858888f193505050501580156109fb573d6000803e3d6000fd5b50610a0461206a565b5b5b60008054906101000a900473ffffffffffffffffffffffffffffffffffffffff1673ffffffffffffffffffffffffffffffffffffffff166108fc479081150290604051600060405180830381858888f19350505050158015610a6c573d6000803e3d6000fd5b50610c71565b600b54600a541015610c705760006006600060028110610a9557610a9461253b565b5b015403610b445760018060028110610ab057610aaf61253b565b5b0160009054906101000a900473ffffffffffffffffffffffffffffffffffffffff1673ffffffffffffffffffffffffffffffffffffffff166108fc65b5e620f480006003546002610b019190612878565b610b0b91906128d2565b9081150290604051600060405180830381858888f19350505050158015610b36573d6000803e3d6000fd5b50610b3f61206a565b610c08565b60006006600160028110610b5b57610b5a61253b565b5b015403610c07576001600060028110610b7757610b7661253b565b5b0160009054906101000a900473ffffffffffffffffffffffffffffffffffffffff1673ffffffffffffffffffffffffffffffffffffffff166108fc65b5e620f480006003546002610bc89190612878565b610bd291906128d2565b9081150290604051600060405180830381858888f19350505050158015610bfd573d6000803e3d6000fd5b50610c0661206a565b5b5b60008054906101000a900473ffffffffffffffffffffffffffffffffffffffff1673ffffffffffffffffffffffffffffffffffffffff166108fc479081150290604051600060405180830381858888f19350505050158015610c6e573d6000803e3d6000fd5b505b5b565b60008054906101000a900473ffffffffffffffffffffffffffffffffffffffff1681565b6001600060028110610cac57610cab61253b565b5b0160009054906101000a900473ffffffffffffffffffffffffffffffffffffffff1673ffffffffffffffffffffffffffffffffffffffff163373ffffffffffffffffffffffffffffffffffffffff161480610d67575060018060028110610d1657610d1561253b565b5b0160009054906101000a900473ffffffffffffffffffffffffffffffffffffffff1673ffffffffffffffffffffffffffffffffffffffff163373ffffffffffffffffffffffffffffffffffffffff16145b610da6576040517f08c379a0000000000000000000000000000000000000000000000000000000008152600401610d9d906125ed565b60405180910390fd5b60016003811115610dba57610db961260d565b5b600860009054906101000a900460ff166003811115610ddc57610ddb61260d565b5b14610e1c576040517f08c379a0000000000000000000000000000000000000000000000000000000008152600401610e139061299e565b60405180910390fd5b6001600060028110610e3157610e3061253b565b5b0160009054906101000a900473ffffffffffffffffffffffffffffffffffffffff1673ffffffffffffffffffffffffffffffffffffffff163373ffffffffffffffffffffffffffffffffffffffff1603610ea557806004600060028110610e9b57610e9a61253b565b5b0181905550610f2a565b60018060028110610eb957610eb861253b565b5b0160009054906101000a900473ffffffffffffffffffffffffffffffffffffffff1673ffffffffffffffffffffffffffffffffffffffff163373ffffffffffffffffffffffffffffffffffffffff1603610f2957806004600160028110610f2357610f2261253b565b5b01819055505b5b6000801b6004600060028110610f4357610f4261253b565b5b015414158015610f6c57506000801b6004600160028110610f6757610f6661253b565b5b015414155b15610fe9576002600860006101000a81548160ff02191690836003811115610f9757610f9661260d565b5b02179055507f93bdb18c9347a47413a34494452b5ffd24e6c071b82959248090dcb3d76ff6ea6002604051610fcc9190612a03565b60405180910390a161038442610fe29190612a1e565b600a819055505b50565b60018160028110610ffc57600080fd5b016000915054906101000a900473ffffffffffffffffffffffffffffffffffffffff1681565b600a5481565b6000600381111561103c5761103b61260d565b5b600860009054906101000a900460ff16600381111561105e5761105d61260d565b5b1461109e576040517f08c379a000000000000000000000000000000000000000000000000000000000815260040161109590612ac0565b60405180910390fd5b66038d7ea4c6800034116110e7576040517f08c379a00000000000000000000000000000000000000000000000000000000081526004016110de90612b78565b60405180910390fd5b600073ffffffffffffffffffffffffffffffffffffffff1660016000600281106111145761111361253b565b5b0160009054906101000a900473ffffffffffffffffffffffffffffffffffffffff1673ffffffffffffffffffffffffffffffffffffffff16036111eb57346003819055507f9db05bb3970a86e9cf94348c35d0f8e6bcc0c07d2e8c3861803f20f8a60cffc160035460405161118991906121cf565b60405180910390a13360016000600281106111a7576111a661253b565b5b0160006101000a81548173ffffffffffffffffffffffffffffffffffffffff021916908373ffffffffffffffffffffffffffffffffffffffff160217905550611409565b600073ffffffffffffffffffffffffffffffffffffffff16600180600281106112175761121661253b565b5b0160009054906101000a900473ffffffffffffffffffffffffffffffffffffffff1673ffffffffffffffffffffffffffffffffffffffff16036114085760016000600281106112695761126861253b565b5b0160009054906101000a900473ffffffffffffffffffffffffffffffffffffffff1673ffffffffffffffffffffffffffffffffffffffff163373ffffffffffffffffffffffffffffffffffffffff16036112f8576040517f08c379a00000000000000000000000000000000000000000000000000000000081526004016112ef90612c0a565b60405180910390fd5b600354341461133c576040517f08c379a000000000000000000000000000000000000000000000000000000000815260040161133390612c9c565b60405180910390fd5b33600180600281106113515761135061253b565b5b0160006101000a81548173ffffffffffffffffffffffffffffffffffffffff021916908373ffffffffffffffffffffffffffffffffffffffff1602179055506001600860006101000a81548160ff021916908360038111156113b6576113b561260d565b5b02179055507f93bdb18c9347a47413a34494452b5ffd24e6c071b82959248090dcb3d76ff6ea60016040516113eb9190612cf7565b60405180910390a1610384426114019190612a1e565b6009819055505b5b565b600b5481565b6003808111156114245761142361260d565b5b600860009054906101000a900460ff1660038111156114465761144561260d565b5b1461145057600080fd5b600160066000600281106114675761146661253b565b5b01540361183357600160066001600281106114855761148461253b565b5b0154036115e45760016000600281106114a1576114a061253b565b5b0160009054906101000a900473ffffffffffffffffffffffffffffffffffffffff1673ffffffffffffffffffffffffffffffffffffffff166108fc655af3107a40006003546114f091906128d2565b9081150290604051600060405180830381858888f1935050505015801561151b573d6000803e3d6000fd5b50600180600281106115305761152f61253b565b5b0160009054906101000a900473ffffffffffffffffffffffffffffffffffffffff1673ffffffffffffffffffffffffffffffffffffffff166108fc655af3107a400060035461157f91906128d2565b9081150290604051600060405180830381858888f193505050501580156115aa573d6000803e3d6000fd5b507fe18095212f2536ad59bdecb643960fd95a4e36c9c2a48fd6dd9ef767d553f4d260006040516115db91906124c7565b60405180910390a15b600260066001600281106115fb576115fa61253b565b5b01540361170a57600180600281106116165761161561253b565b5b0160009054906101000a900473ffffffffffffffffffffffffffffffffffffffff1673ffffffffffffffffffffffffffffffffffffffff166108fc65b5e620f4800060035460026116679190612878565b61167191906128d2565b9081150290604051600060405180830381858888f1935050505015801561169c573d6000803e3d6000fd5b507fe18095212f2536ad59bdecb643960fd95a4e36c9c2a48fd6dd9ef767d553f4d2600180600281106116d2576116d161253b565b5b0160009054906101000a900473ffffffffffffffffffffffffffffffffffffffff1660405161170191906124c7565b60405180910390a15b600360066001600281106117215761172061253b565b5b01540361183257600160006002811061173d5761173c61253b565b5b0160009054906101000a900473ffffffffffffffffffffffffffffffffffffffff1673ffffffffffffffffffffffffffffffffffffffff166108fc65b5e620f48000600354600261178e9190612878565b61179891906128d2565b9081150290604051600060405180830381858888f193505050501580156117c3573d6000803e3d6000fd5b507fe18095212f2536ad59bdecb643960fd95a4e36c9c2a48fd6dd9ef767d553f4d260016000600281106117fa576117f961253b565b5b0160009054906101000a900473ffffffffffffffffffffffffffffffffffffffff1660405161182991906124c7565b60405180910390a15b5b6002600660006002811061184a5761184961253b565b5b015403611c1657600160066001600281106118685761186761253b565b5b0154036119795760016000600281106118845761188361253b565b5b0160009054906101000a900473ffffffffffffffffffffffffffffffffffffffff1673ffffffffffffffffffffffffffffffffffffffff166108fc65b5e620f4800060035460026118d59190612878565b6118df91906128d2565b9081150290604051600060405180830381858888f1935050505015801561190a573d6000803e3d6000fd5b507fe18095212f2536ad59bdecb643960fd95a4e36c9c2a48fd6dd9ef767d553f4d260016000600281106119415761194061253b565b5b0160009054906101000a900473ffffffffffffffffffffffffffffffffffffffff1660405161197091906124c7565b60405180910390a15b600260066001600281106119905761198f61253b565b5b015403611aef5760016000600281106119ac576119ab61253b565b5b0160009054906101000a900473ffffffffffffffffffffffffffffffffffffffff1673ffffffffffffffffffffffffffffffffffffffff166108fc655af3107a40006003546119fb91906128d2565b9081150290604051600060405180830381858888f19350505050158015611a26573d6000803e3d6000fd5b5060018060028110611a3b57611a3a61253b565b5b0160009054906101000a900473ffffffffffffffffffffffffffffffffffffffff1673ffffffffffffffffffffffffffffffffffffffff166108fc655af3107a4000600354611a8a91906128d2565b9081150290604051600060405180830381858888f19350505050158015611ab5573d6000803e3d6000fd5b507fe18095212f2536ad59bdecb643960fd95a4e36c9c2a48fd6dd9ef767d553f4d26000604051611ae691906124c7565b60405180910390a15b60036006600160028110611b0657611b0561253b565b5b015403611c155760018060028110611b2157611b2061253b565b5b0160009054906101000a900473ffffffffffffffffffffffffffffffffffffffff1673ffffffffffffffffffffffffffffffffffffffff166108fc65b5e620f480006003546002611b729190612878565b611b7c91906128d2565b9081150290604051600060405180830381858888f19350505050158015611ba7573d6000803e3d6000fd5b507fe18095212f2536ad59bdecb643960fd95a4e36c9c2a48fd6dd9ef767d553f4d260018060028110611bdd57611bdc61253b565b5b0160009054906101000a900473ffffffffffffffffffffffffffffffffffffffff16604051611c0c91906124c7565b60405180910390a15b5b60036006600060028110611c2d57611c2c61253b565b5b015403611ff95760016006600160028110611c4b57611c4a61253b565b5b015403611d5a5760018060028110611c6657611c6561253b565b5b0160009054906101000a900473ffffffffffffffffffffffffffffffffffffffff1673ffffffffffffffffffffffffffffffffffffffff166108fc65b5e620f480006003546002611cb79190612878565b611cc191906128d2565b9081150290604051600060405180830381858888f19350505050158015611cec573d6000803e3d6000fd5b507fe18095212f2536ad59bdecb643960fd95a4e36c9c2a48fd6dd9ef767d553f4d260018060028110611d2257611d2161253b565b5b0160009054906101000a900473ffffffffffffffffffffffffffffffffffffffff16604051611d5191906124c7565b60405180910390a15b60026006600160028110611d7157611d7061253b565b5b015403611e82576001600060028110611d8d57611d8c61253b565b5b0160009054906101000a900473ffffffffffffffffffffffffffffffffffffffff1673ffffffffffffffffffffffffffffffffffffffff166108fc65b5e620f480006003546002611dde9190612878565b611de891906128d2565b9081150290604051600060405180830381858888f19350505050158015611e13573d6000803e3d6000fd5b507fe18095212f2536ad59bdecb643960fd95a4e36c9c2a48fd6dd9ef767d553f4d26001600060028110611e4a57611e4961253b565b5b0160009054906101000a900473ffffffffffffffffffffffffffffffffffffffff16604051611e7991906124c7565b60405180910390a15b60036006600160028110611e9957611e9861253b565b5b015403611ff8576001600060028110611eb557611eb461253b565b5b0160009054906101000a900473ffffffffffffffffffffffffffffffffffffffff1673ffffffffffffffffffffffffffffffffffffffff166108fc655af3107a4000600354611f0491906128d2565b9081150290604051600060405180830381858888f19350505050158015611f2f573d6000803e3d6000fd5b5060018060028110611f4457611f4361253b565b5b0160009054906101000a900473ffffffffffffffffffffffffffffffffffffffff1673ffffffffffffffffffffffffffffffffffffffff166108fc655af3107a4000600354611f9391906128d2565b9081150290604051600060405180830381858888f19350505050158015611fbe573d6000803e3d6000fd5b507fe18095212f2536ad59bdecb643960fd95a4e36c9c2a48fd6dd9ef767d553f4d26000604051611fef91906124c7565b60405180910390a15b5b60008054906101000a900473ffffffffffffffffffffffffffffffffffffffff1673ffffffffffffffffffffffffffffffffffffffff166108fc479081150290604051600060405180830381858888f1935050505015801561205f573d6000803e3d6000fd5b5061206861206a565b565b600060016000600281106120815761208061253b565b5b0160006101000a81548173ffffffffffffffffffffffffffffffffffffffff021916908373ffffffffffffffffffffffffffffffffffffffff1602179055506000600180600281106120d6576120d561253b565b5b0160006101000a81548173ffffffffffffffffffffffffffffffffffffffff021916908373ffffffffffffffffffffffffffffffffffffffff1602179055506000801b600460006002811061212e5761212d61253b565b5b01819055506000801b600460016002811061214c5761214b61253b565b5b0181905550600060066000600281106121685761216761253b565b5b0181905550600060066001600281106121845761218361253b565b5b01819055506000600860006101000a81548160ff021916908360038111156121af576121ae61260d565b5b0217905550565b6000819050919050565b6121c9816121b6565b82525050565b60006020820190506121e460008301846121c0565b92915050565b6000604051905090565b600080fd5b600080fd5b612207816121b6565b811461221257600080fd5b50565b600081359050612224816121fe565b92915050565b600080fd5b600080fd5b6000601f19601f8301169050919050565b7f4e487b7100000000000000000000000000000000000000000000000000000000600052604160045260246000fd5b61227d82612234565b810181811067ffffffffffffffff8211171561229c5761229b612245565b5b80604052505050565b60006122af6121ea565b90506122bb8282612274565b919050565b600067ffffffffffffffff8211156122db576122da612245565b5b6122e482612234565b9050602081019050919050565b82818337600083830152505050565b600061231361230e846122c0565b6122a5565b90508281526020810184848401111561232f5761232e61222f565b5b61233a8482856122f1565b509392505050565b600082601f8301126123575761235661222a565b5b8135612367848260208601612300565b91505092915050565b60008060408385031215612387576123866121f4565b5b600061239585828601612215565b925050602083013567ffffffffffffffff8111156123b6576123b56121f9565b5b6123c285828601612342565b9150509250929050565b600073ffffffffffffffffffffffffffffffffffffffff82169050919050565b60006123f7826123cc565b9050919050565b612407816123ec565b811461241257600080fd5b50565b600081359050612424816123fe565b92915050565b6000602082840312156124405761243f6121f4565b5b600061244e84828501612415565b91505092915050565b60006020828403121561246d5761246c6121f4565b5b600061247b84828501612215565b91505092915050565b6000819050919050565b61249781612484565b82525050565b60006020820190506124b2600083018461248e565b92915050565b6124c1816123ec565b82525050565b60006020820190506124dc60008301846124b8565b92915050565b6124eb81612484565b81146124f657600080fd5b50565b600081359050612508816124e2565b92915050565b600060208284031215612524576125236121f4565b5b6000612532848285016124f9565b91505092915050565b7f4e487b7100000000000000000000000000000000000000000000000000000000600052603260045260246000fd5b600082825260208201905092915050565b7f44752062697374206b65696e20537069656c65722064657220616b746965766560008201527f6e2052756e646521000000000000000000000000000000000000000000000000602082015250565b60006125d760288361256a565b91506125e28261257b565b604082019050919050565b60006020820190508181036000830152612606816125ca565b9050919050565b7f4e487b7100000000000000000000000000000000000000000000000000000000600052602160045260246000fd5b7f446965205761686c206b616e6e206e6f6368206e69636874206175666765646560008201527f636b742077657264656e21000000000000000000000000000000000000000000602082015250565b6000612698602b8361256a565b91506126a38261263c565b604082019050919050565b600060208201905081810360008301526126c78161268b565b9050919050565b6000819050919050565b6126e96126e4826121b6565b6126ce565b82525050565b600081519050919050565b600081905092915050565b60005b83811015612723578082015181840152602081019050612708565b83811115612732576000848401525b50505050565b6000612743826126ef565b61274d81856126fa565b935061275d818560208601612705565b80840191505092915050565b600061277582856126d8565b6020820191506127858284612738565b91508190509392505050565b7f447520626566696e64657374206469636820696d2066616c736368656e20537060008201527f69656c2d537461747573206f64657220646965205a65697420697374206e6f6360208201527f68206e6963687420616267656c617566656e2100000000000000000000000000604082015250565b600061281360538361256a565b915061281e82612791565b606082019050919050565b6000602082019050818103600083015261284281612806565b9050919050565b7f4e487b7100000000000000000000000000000000000000000000000000000000600052601160045260246000fd5b6000612883826121b6565b915061288e836121b6565b9250817fffffffffffffffffffffffffffffffffffffffffffffffffffffffffffffffff04831182151516156128c7576128c6612849565b5b828202905092915050565b60006128dd826121b6565b91506128e8836121b6565b9250828210156128fb576128fa612849565b5b828203905092915050565b7f5761686c206b616e6e206e6f6368206e6963687420676574726f6666656e207760008201527f657264656e206f646572207775726465206265726569747320676574726f666660208201527f656e210000000000000000000000000000000000000000000000000000000000604082015250565b600061298860438361256a565b915061299382612906565b606082019050919050565b600060208201905081810360008301526129b78161297b565b9050919050565b6000819050919050565b6000819050919050565b60006129ed6129e86129e3846129be565b6129c8565b6121b6565b9050919050565b6129fd816129d2565b82525050565b6000602082019050612a1860008301846129f4565b92915050565b6000612a29826121b6565b9150612a34836121b6565b9250827fffffffffffffffffffffffffffffffffffffffffffffffffffffffffffffffff03821115612a6957612a68612849565b5b828201905092915050565b7f44617320537069656c206861742062657265697473206265676f6e6e656e2100600082015250565b6000612aaa601f8361256a565b9150612ab582612a74565b602082019050919050565b60006020820190508181036000830152612ad981612a9d565b9050919050565b7f4475206d757373742065696e656e2045696e7361747a20286d696e2e20302c3060008201527f30312045544829207365747a656e3b20646572206f776e65722065726861656c60208201527f7420302c3030302e312045544821000000000000000000000000000000000000604082015250565b6000612b62604e8361256a565b9150612b6d82612ae0565b606082019050919050565b60006020820190508181036000830152612b9181612b55565b9050919050565b7f4475206b616e6e7374206e6963687420676567656e20646963682073656c627360008201527f7420737069656c656e2100000000000000000000000000000000000000000000602082015250565b6000612bf4602a8361256a565b9150612bff82612b98565b604082019050919050565b60006020820190508181036000830152612c2381612be7565b9050919050565b7f4465696e20537069656c2d45696e7361747a206d7573732064656d20566f726760008201527f65676562656e656e20656e74737072656368656e210000000000000000000000602082015250565b6000612c8660358361256a565b9150612c9182612c2a565b604082019050919050565b60006020820190508181036000830152612cb581612c79565b9050919050565b6000819050919050565b6000612ce1612cdc612cd784612cbc565b6129c8565b6121b6565b9050919050565b612cf181612cc6565b82525050565b6000602082019050612d0c6000830184612ce8565b9291505056fea2646970667358221220e5bc20396532e0959168fd50f910c37f50af87aa1d25f731be3d86ca9acd81fa64736f6c634300080f0033",
  "immutableReferences": {},
  "source": "// SC fr das Spiel \"Schere, Stein, Papier\" als Ethereum DApp\r\n\r\n// SPDX-License-Identifier: GPL-3.0\r\n\r\npragma solidity ^0.8.7;\r\n\r\ncontract CloneFactory {\r\n\r\n  function createClone(address target) internal returns (address result) {\r\n    bytes20 targetBytes = bytes20(target);\r\n    assembly {\r\n      let clone := mload(0x40)\r\n      mstore(clone, 0x3d602d80600a3d3981f3363d3d373d3d3d363d73000000000000000000000000)\r\n      mstore(add(clone, 0x14), targetBytes)\r\n      mstore(add(clone, 0x28), 0x5af43d82803e903d91602b57fd5bf30000000000000000000000000000000000)\r\n      result := create(0, clone, 0x37)\r\n    }\r\n  }\r\n\r\n  function isClone(address target, address query) internal view returns (bool result) {\r\n    bytes20 targetBytes = bytes20(target);\r\n    assembly {\r\n      let clone := mload(0x40)\r\n      mstore(clone, 0x363d3d373d3d3d363d7300000000000000000000000000000000000000000000)\r\n      mstore(add(clone, 0xa), targetBytes)\r\n      mstore(add(clone, 0x1e), 0x5af43d82803e903d91602b57fd5bf30000000000000000000000000000000000)\r\n\r\n      let other := add(clone, 0x40)\r\n      extcodecopy(query, other, 0, 0x2d)\r\n      result := and(\r\n        eq(mload(clone), mload(other)),\r\n        eq(mload(add(clone, 0xd)), mload(add(other, 0xd)))\r\n      )\r\n    }\r\n  }\r\n}\r\n\r\ncontract Factory is CloneFactory {\r\n\r\n     address[] public childrenaddress;\r\n     address masterContract;\r\n     address public owner;\r\n\r\n     constructor(address _masterContract){\r\n         masterContract = _masterContract;\r\n         owner = msg.sender;\r\n     }\r\n\r\n    event Spielerzeugt(address Spieladdresse, address Factoryaddresse);\r\n\r\n    function createChild() external{\r\n        address child = createClone(masterContract);\r\n        childrenaddress.push(child);\r\n        emit Spielerzeugt(child, address(this));\r\n    }\r\n\r\n    function ETHabheben() public  {\r\n        require (msg.sender == owner, \"Nur der Smart Contract owner/Betreiber ist berechtigt!\");\r\n        payable(owner).transfer(address(this).balance);\r\n    }\r\n\r\n    receive() external payable{}\r\n\r\n}\r\n\r\ncontract SchereSteinPapier {\r\n    \r\n    // speichern der Factory-Addresse\r\n    address public FactoryAddress;\r\n\r\n    // speichern der Spieler-Addressen\r\n    address [2] public Spieler;\r\n\r\n    // speichern des Spieleinsatzes\r\n    uint public Einsatz;\r\n\r\n    // speichern des verschlsselten Spiel-Zugs\r\n    bytes32[2] public VerschluesselterZug;\r\n \r\n    // speichern des entschlsselten Spiel-Zugs\r\n    // 0: initial\r\n    // 1: Schere\r\n    // 2: Stein\r\n    // 3: Papier\r\n    uint[2] public Zug;\r\n\r\n    // Spiel Status\r\n    enum Status {Beginn, Wahl, Entscheidung, Auszahlung}\r\n    Status status;\r\n\r\n    // Timer\r\n    uint public stop;\r\n    uint public stop1;\r\n    uint public jetzt;\r\n\r\n    // event fr Einsatz\r\n    event EinsatzIst (uint Einsatz);\r\n\r\n    // event fr Gewinner\r\n    event GewinnerIst (address Gewinner);\r\n\r\n    // event fr Spielstatus\r\n    event Spielstatus (uint Status);\r\n\r\n    // Modifier zum Prfen ob es sich um einen Spieler handelt\r\n    modifier IstSpieler() {\r\n        require (msg.sender == Spieler[0] || msg.sender == Spieler[1], \"Du bist kein Spieler der aktieven Runde!\");\r\n        _;\r\n    }\r\n\r\n    // Konstruktor legt owner fest und initialisiert Variablen\r\n    constructor() public {\r\n        initialisieren();\r\n    }\r\n\r\n    function init(address _FactoryAddress) external {\r\n        FactoryAddress = _FactoryAddress;\r\n    }\r\n\r\n    // Funktion zum initialisieren des Spiels\r\n    function initialisieren() private {\r\n        Spieler[0] = payable(address(0));\r\n        Spieler[1] = payable(address(0));\r\n        VerschluesselterZug[0] = 0;\r\n        VerschluesselterZug[1] = 0;\r\n        Zug[0] = 0;\r\n        Zug[1] = 0;\r\n        status = Status.Beginn;\r\n    }\r\n\r\n    // Funktion zum Spiel-Beitritt\r\n    function spielen() public payable {\r\n        require (status == Status.Beginn, \"Das Spiel hat bereits begonnen!\");\r\n        require (msg.value > 1000000000000000, \"Du musst einen Einsatz (min. 0,001 ETH) setzen; der owner erhaelt 0,000.1 ETH!\");\r\n        if (Spieler[0] == address(0)) {\r\n            Einsatz = msg.value;\r\n            emit EinsatzIst(Einsatz);\r\n            Spieler[0] = payable(msg.sender);\r\n        }\r\n        else if (Spieler[1] == address(0)) {\r\n            require (msg.sender != Spieler[0], \"Du kannst nicht gegen dich selbst spielen!\");\r\n            require (msg.value == Einsatz, \"Dein Spiel-Einsatz muss dem Vorgegebenen entsprechen!\");\r\n            Spieler[1] = payable(msg.sender);\r\n            status = Status.Wahl;\r\n            emit Spielstatus(1);\r\n            stop = block.timestamp + 900;\r\n        }\r\n    }\r\n\r\n    // Funktion zum Whlen von Schere, Stein oder Papier\r\n    function waehlen(bytes32 wahl) public IstSpieler {\r\n        require (status == Status.Wahl, \"Wahl kann noch nicht getroffen werden oder wurde bereits getroffen!\");\r\n        if (msg.sender == Spieler[0]) {\r\n            VerschluesselterZug[0] = wahl;\r\n        }\r\n        else if (msg.sender == Spieler[1]) {\r\n            VerschluesselterZug[1] = wahl;\r\n        }\r\n        if (VerschluesselterZug[0] != 0 && VerschluesselterZug[1] != 0) {\r\n            status = Status.Entscheidung;\r\n            emit Spielstatus(2);\r\n            stop1 = block.timestamp + 900;\r\n        }\r\n    }\r\n\r\n    // Funktion deckt Wahl des Spielers auf\r\n    function wahlentschluesseln(uint wahl, string memory schluessel) public IstSpieler {\r\n        require (status == Status.Entscheidung, \"Die Wahl kann noch nicht aufgedeckt werden!\");\r\n        bytes32 verschluesselt = keccak256(abi.encodePacked(wahl, schluessel)); \r\n        if (msg.sender == Spieler[0]) {\r\n            if (verschluesselt == VerschluesselterZug[0]) {\r\n                Zug[0] = wahl;\r\n            }\r\n        }\r\n        else {\r\n            if (verschluesselt == VerschluesselterZug[1]) {\r\n                Zug[1] = wahl;\r\n            }\r\n        }\r\n        if (Zug[0] != 0 && Zug[1] != 0) {\r\n            status = Status.Auszahlung;\r\n            entscheidung();\r\n        }\r\n    }\r\n\r\n    // Funktion zur Entscheidungsfindung des Spiels\r\n    function entscheidung() private {\r\n        require (status == Status.Auszahlung);\r\n        if (Zug[0] == 1) {\r\n            if (Zug[1] == 1) {\r\n                payable(Spieler[0]).transfer(Einsatz-100000000000000);\r\n                payable(Spieler[1]).transfer(Einsatz-100000000000000);\r\n                emit GewinnerIst(address(0));\r\n            }\r\n            if (Zug[1] == 2) {\r\n                payable(Spieler[1]).transfer(2*Einsatz-200000000000000);\r\n                emit GewinnerIst(Spieler[1]);\r\n            }\r\n            if (Zug[1] == 3) {\r\n                payable(Spieler[0]).transfer(2*Einsatz-200000000000000);\r\n                emit GewinnerIst(Spieler[0]);\r\n            }\r\n        }\r\n        if (Zug[0] == 2) {\r\n            if (Zug[1] == 1) {\r\n                payable(Spieler[0]).transfer(2*Einsatz-200000000000000);\r\n                emit GewinnerIst(Spieler[0]);\r\n            }\r\n            if (Zug[1] == 2) {\r\n                payable(Spieler[0]).transfer(Einsatz-100000000000000);\r\n                payable(Spieler[1]).transfer(Einsatz-100000000000000);\r\n                emit GewinnerIst(address(0));\r\n            }\r\n            if (Zug[1] == 3) {\r\n                payable(Spieler[1]).transfer(2*Einsatz-200000000000000);\r\n                emit GewinnerIst(Spieler[1]);\r\n            }\r\n        }\r\n        if (Zug[0] == 3) {\r\n            if (Zug[1] == 1) {\r\n                payable(Spieler[1]).transfer(2*Einsatz-200000000000000);\r\n                emit GewinnerIst(Spieler[1]);\r\n            }\r\n            if (Zug[1] == 2) {\r\n                payable(Spieler[0]).transfer(2*Einsatz-200000000000000);\r\n                emit GewinnerIst(Spieler[0]);\r\n            }\r\n            if (Zug[1] == 3) {\r\n                payable(Spieler[0]).transfer(Einsatz-100000000000000);\r\n                payable(Spieler[1]).transfer(Einsatz-100000000000000);\r\n                emit GewinnerIst(address(0));\r\n            }\r\n        }\r\n        payable(FactoryAddress).transfer(address(this).balance); \r\n        initialisieren();\r\n    }\r\n\r\n    // Funktion zum Erstatten des Einsatzes\r\n    function erstatten() public IstSpieler {\r\n        jetzt = block.timestamp;\r\n        require ((status == Status.Wahl && stop < jetzt) || (status == Status.Entscheidung && stop1 < jetzt), \"Du befindest dich im falschen Spiel-Status oder die Zeit ist noch nicht abgelaufen!\");\r\n        if (stop < jetzt) {\r\n            if (VerschluesselterZug[0] == 0) {\r\n                payable(Spieler[1]).transfer(2*Einsatz-200000000000000);\r\n                initialisieren();\r\n            }\r\n            else if (VerschluesselterZug[1] == 0) {\r\n                payable(Spieler[0]).transfer(2*Einsatz-200000000000000);\r\n                initialisieren();\r\n            }\r\n            payable(FactoryAddress).transfer(address(this).balance);\r\n        }\r\n        else if (stop1 < jetzt) {\r\n            if (Zug[0] == 0) {\r\n                payable(Spieler[1]).transfer(2*Einsatz-200000000000000);\r\n                initialisieren();\r\n            }\r\n            else if (Zug[1] == 0) {\r\n                payable(Spieler[0]).transfer(2*Einsatz-200000000000000);\r\n                initialisieren();\r\n            }\r\n            payable(FactoryAddress).transfer(address(this).balance);\r\n        }\r\n    }\r\n}",
  "sourcePath": "C:\\Users\\pierr\\Desktop\\Blockchain\\Blockchain3\\SSPFPfinal\\contracts\\SchereSteinPapier.sol",
  "compiler": {
    "name": "solc",
    "version": "0.8.15+commit.e14f2714.Emscripten.clang"
  },
  "schemaVersion": "3.4.7",
  "updatedAt": "2022-07-01T20:46:16.469Z",
  "devdoc": {
    "kind": "dev",
    "methods": {},
    "version": 1
  },
  "userdoc": {
    "kind": "user",
    "methods": {},
    "version": 1
  }
}