{
  "contractName": "SchereSteinPapier",
  "abi": [
    {
      "inputs": [],
      "stateMutability": "nonpayable",
      "type": "constructor"
    },
    {
      "anonymous": false,
      "inputs": [
        {
          "indexed": false,
          "internalType": "uint256",
          "name": "Einsatz",
          "type": "uint256"
        }
      ],
      "name": "EinsatzIst",
      "type": "event"
    },
    {
      "anonymous": false,
      "inputs": [
        {
          "indexed": false,
          "internalType": "address",
          "name": "Gewinner",
          "type": "address"
        }
      ],
      "name": "GewinnerIst",
      "type": "event"
    },
    {
      "inputs": [],
      "name": "Einsatz",
      "outputs": [
        {
          "internalType": "uint256",
          "name": "",
          "type": "uint256"
        }
      ],
      "stateMutability": "view",
      "type": "function",
      "constant": true
    },
    {
      "inputs": [],
      "name": "FactoryAddress",
      "outputs": [
        {
          "internalType": "address payable",
          "name": "",
          "type": "address"
        }
      ],
      "stateMutability": "view",
      "type": "function",
      "constant": true
    },
    {
      "inputs": [
        {
          "internalType": "uint256",
          "name": "",
          "type": "uint256"
        }
      ],
      "name": "Spieler",
      "outputs": [
        {
          "internalType": "address",
          "name": "",
          "type": "address"
        }
      ],
      "stateMutability": "view",
      "type": "function",
      "constant": true
    },
    {
      "inputs": [
        {
          "internalType": "uint256",
          "name": "",
          "type": "uint256"
        }
      ],
      "name": "VerschluesselterZug",
      "outputs": [
        {
          "internalType": "bytes32",
          "name": "",
          "type": "bytes32"
        }
      ],
      "stateMutability": "view",
      "type": "function",
      "constant": true
    },
    {
      "inputs": [
        {
          "internalType": "uint256",
          "name": "",
          "type": "uint256"
        }
      ],
      "name": "Zug",
      "outputs": [
        {
          "internalType": "uint256",
          "name": "",
          "type": "uint256"
        }
      ],
      "stateMutability": "view",
      "type": "function",
      "constant": true
    },
    {
      "inputs": [],
      "name": "jetzt",
      "outputs": [
        {
          "internalType": "uint256",
          "name": "",
          "type": "uint256"
        }
      ],
      "stateMutability": "view",
      "type": "function",
      "constant": true
    },
    {
      "inputs": [],
      "name": "start",
      "outputs": [
        {
          "internalType": "uint256",
          "name": "",
          "type": "uint256"
        }
      ],
      "stateMutability": "view",
      "type": "function",
      "constant": true
    },
    {
      "inputs": [],
      "name": "start1",
      "outputs": [
        {
          "internalType": "uint256",
          "name": "",
          "type": "uint256"
        }
      ],
      "stateMutability": "view",
      "type": "function",
      "constant": true
    },
    {
      "inputs": [],
      "name": "stop",
      "outputs": [
        {
          "internalType": "uint256",
          "name": "",
          "type": "uint256"
        }
      ],
      "stateMutability": "view",
      "type": "function",
      "constant": true
    },
    {
      "inputs": [],
      "name": "stop1",
      "outputs": [
        {
          "internalType": "uint256",
          "name": "",
          "type": "uint256"
        }
      ],
      "stateMutability": "view",
      "type": "function",
      "constant": true
    },
    {
      "inputs": [
        {
          "internalType": "address",
          "name": "_FactoryAddress",
          "type": "address"
        }
      ],
      "name": "init",
      "outputs": [],
      "stateMutability": "nonpayable",
      "type": "function"
    },
    {
      "inputs": [],
      "name": "spielen",
      "outputs": [],
      "stateMutability": "payable",
      "type": "function",
      "payable": true
    },
    {
      "inputs": [
        {
          "internalType": "bytes32",
          "name": "wahl",
          "type": "bytes32"
        }
      ],
      "name": "waehlen",
      "outputs": [],
      "stateMutability": "nonpayable",
      "type": "function"
    },
    {
      "inputs": [
        {
          "internalType": "uint256",
          "name": "wahl",
          "type": "uint256"
        },
        {
          "internalType": "string",
          "name": "schluessel",
          "type": "string"
        }
      ],
      "name": "wahlentschluesseln",
      "outputs": [],
      "stateMutability": "nonpayable",
      "type": "function"
    },
    {
      "inputs": [],
      "name": "erstatten",
      "outputs": [],
      "stateMutability": "nonpayable",
      "type": "function"
    }
  ],
  "bytecode": "0x608060405268056bc75e2d63100000600c553480156200001e57600080fd5b506200002f6200003560201b60201c565b620001f4565b600060016000600281106200004f576200004e62000196565b5b0160006101000a81548173ffffffffffffffffffffffffffffffffffffffff021916908373ffffffffffffffffffffffffffffffffffffffff160217905550600060018060028110620000a757620000a662000196565b5b0160006101000a81548173ffffffffffffffffffffffffffffffffffffffff021916908373ffffffffffffffffffffffffffffffffffffffff1602179055506000801b600460006002811062000102576200010162000196565b5b01819055506000801b600460016002811062000123576200012262000196565b5b01819055506000600660006002811062000142576200014162000196565b5b01819055506000600660016002811062000161576200016062000196565b5b01819055506000600860006101000a81548160ff021916908360038111156200018f576200018e620001c5565b5b0217905550565b7f4e487b7100000000000000000000000000000000000000000000000000000000600052603260045260246000fd5b7f4e487b7100000000000000000000000000000000000000000000000000000000600052602160045260246000fd5b612ce780620002046000396000f3fe6080604052600436106100e75760003560e01c8063922c73161161008a578063b23b64f811610059578063b23b64f8146102e1578063be9a65551461030c578063cf25999e14610337578063f71aad3914610341576100e7565b8063922c731614610225578063a3ac3ff814610250578063aaf3c6aa14610279578063ac4b090e146102b6576100e7565b806319ab453c116100c657806319ab453c1461016b578063376b3ca014610194578063394a0d22146101d157806353cc3c9a1461020e576100e7565b80621e20db146100ec57806307da68f5146101175780630e29f88514610142575b600080fd5b3480156100f857600080fd5b5061010161036c565b60405161010e919061217c565b60405180910390f35b34801561012357600080fd5b5061012c610372565b604051610139919061217c565b60405180910390f35b34801561014e57600080fd5b506101696004803603810190610164919061231d565b610378565b005b34801561017757600080fd5b50610192600480360381019061018d91906123d7565b610687565b005b3480156101a057600080fd5b506101bb60048036038101906101b69190612404565b6106ca565b6040516101c8919061217c565b60405180910390f35b3480156101dd57600080fd5b506101f860048036038101906101f39190612404565b6106e5565b604051610205919061244a565b60405180910390f35b34801561021a57600080fd5b50610223610700565b005b34801561023157600080fd5b5061023a610d1b565b6040516102479190612486565b60405180910390f35b34801561025c57600080fd5b50610277600480360381019061027291906124cd565b610d3f565b005b34801561028557600080fd5b506102a0600480360381019061029b9190612404565b611065565b6040516102ad9190612509565b60405180910390f35b3480156102c257600080fd5b506102cb61109b565b6040516102d8919061217c565b60405180910390f35b3480156102ed57600080fd5b506102f66110a1565b604051610303919061217c565b60405180910390f35b34801561031857600080fd5b506103216110a7565b60405161032e919061217c565b60405180910390f35b61033f6110ad565b005b34801561034d57600080fd5b50610356611460565b604051610363919061217c565b60405180910390f35b60035481565b600a5481565b600160006002811061038d5761038c612524565b5b0160009054906101000a900473ffffffffffffffffffffffffffffffffffffffff1673ffffffffffffffffffffffffffffffffffffffff163373ffffffffffffffffffffffffffffffffffffffff1614806104485750600180600281106103f7576103f6612524565b5b0160009054906101000a900473ffffffffffffffffffffffffffffffffffffffff1673ffffffffffffffffffffffffffffffffffffffff163373ffffffffffffffffffffffffffffffffffffffff16145b610487576040517f08c379a000000000000000000000000000000000000000000000000000000000815260040161047e906125d6565b60405180910390fd5b6002600381111561049b5761049a6125f6565b5b600860009054906101000a900460ff1660038111156104bd576104bc6125f6565b5b146104fd576040517f08c379a00000000000000000000000000000000000000000000000000000000081526004016104f490612697565b60405180910390fd5b60008282604051602001610512929190612752565b604051602081830303815290604052805190602001209050600160006002811061053f5761053e612524565b5b0160009054906101000a900473ffffffffffffffffffffffffffffffffffffffff1673ffffffffffffffffffffffffffffffffffffffff163373ffffffffffffffffffffffffffffffffffffffff16036105d15760046000600281106105a8576105a7612524565b5b015481036105cc578260066000600281106105c6576105c5612524565b5b01819055505b61060b565b60046001600281106105e6576105e5612524565b5b0154810361060a5782600660016002811061060457610603612524565b5b01819055505b5b6000600660006002811061062257610621612524565b5b01541415801561064957506000600660016002811061064457610643612524565b5b015414155b15610682576003600860006101000a81548160ff02191690836003811115610674576106736125f6565b5b0217905550610681611466565b5b505050565b806000806101000a81548173ffffffffffffffffffffffffffffffffffffffff021916908373ffffffffffffffffffffffffffffffffffffffff16021790555050565b600681600281106106da57600080fd5b016000915090505481565b600481600281106106f557600080fd5b016000915090505481565b600160006002811061071557610714612524565b5b0160009054906101000a900473ffffffffffffffffffffffffffffffffffffffff1673ffffffffffffffffffffffffffffffffffffffff163373ffffffffffffffffffffffffffffffffffffffff1614806107d057506001806002811061077f5761077e612524565b5b0160009054906101000a900473ffffffffffffffffffffffffffffffffffffffff1673ffffffffffffffffffffffffffffffffffffffff163373ffffffffffffffffffffffffffffffffffffffff16145b61080f576040517f08c379a0000000000000000000000000000000000000000000000000000000008152600401610806906125d6565b60405180910390fd5b42600d819055506001600381111561082a576108296125f6565b5b600860009054906101000a900460ff16600381111561084c5761084b6125f6565b5b148061088b575060026003811115610867576108666125f6565b5b600860009054906101000a900460ff166003811115610889576108886125f6565b5b145b6108ca576040517f08c379a00000000000000000000000000000000000000000000000000000000081526004016108c1906127ec565b60405180910390fd5b600d54600a5410806108df5750600d54600c54105b61091e576040517f08c379a00000000000000000000000000000000000000000000000000000000081526004016109159061287e565b60405180910390fd5b600d54600a541015610b1f576000801b600460006002811061094357610942612524565b5b0154036109ee576001806002811061095e5761095d612524565b5b0160009054906101000a900473ffffffffffffffffffffffffffffffffffffffff1673ffffffffffffffffffffffffffffffffffffffff166108fc65b5e620f4800060035460026109af91906128cd565b6109b99190612927565b9081150290604051600060405180830381858888f193505050501580156109e4573d6000803e3d6000fd5b506109ed612017565b5b6000801b6004600160028110610a0757610a06612524565b5b015403610ab3576001600060028110610a2357610a22612524565b5b0160009054906101000a900473ffffffffffffffffffffffffffffffffffffffff1673ffffffffffffffffffffffffffffffffffffffff166108fc65b5e620f480006003546002610a7491906128cd565b610a7e9190612927565b9081150290604051600060405180830381858888f19350505050158015610aa9573d6000803e3d6000fd5b50610ab2612017565b5b60008054906101000a900473ffffffffffffffffffffffffffffffffffffffff1673ffffffffffffffffffffffffffffffffffffffff166108fc479081150290604051600060405180830381858888f19350505050158015610b19573d6000803e3d6000fd5b50610d19565b600d54600c541015610d185760006006600060028110610b4257610b41612524565b5b015403610bed5760018060028110610b5d57610b5c612524565b5b0160009054906101000a900473ffffffffffffffffffffffffffffffffffffffff1673ffffffffffffffffffffffffffffffffffffffff166108fc65b5e620f480006003546002610bae91906128cd565b610bb89190612927565b9081150290604051600060405180830381858888f19350505050158015610be3573d6000803e3d6000fd5b50610bec612017565b5b60006006600160028110610c0457610c03612524565b5b015403610cb0576001600060028110610c2057610c1f612524565b5b0160009054906101000a900473ffffffffffffffffffffffffffffffffffffffff1673ffffffffffffffffffffffffffffffffffffffff166108fc65b5e620f480006003546002610c7191906128cd565b610c7b9190612927565b9081150290604051600060405180830381858888f19350505050158015610ca6573d6000803e3d6000fd5b50610caf612017565b5b60008054906101000a900473ffffffffffffffffffffffffffffffffffffffff1673ffffffffffffffffffffffffffffffffffffffff166108fc479081150290604051600060405180830381858888f19350505050158015610d16573d6000803e3d6000fd5b505b5b565b60008054906101000a900473ffffffffffffffffffffffffffffffffffffffff1681565b6001600060028110610d5457610d53612524565b5b0160009054906101000a900473ffffffffffffffffffffffffffffffffffffffff1673ffffffffffffffffffffffffffffffffffffffff163373ffffffffffffffffffffffffffffffffffffffff161480610e0f575060018060028110610dbe57610dbd612524565b5b0160009054906101000a900473ffffffffffffffffffffffffffffffffffffffff1673ffffffffffffffffffffffffffffffffffffffff163373ffffffffffffffffffffffffffffffffffffffff16145b610e4e576040517f08c379a0000000000000000000000000000000000000000000000000000000008152600401610e45906125d6565b60405180910390fd5b60016003811115610e6257610e616125f6565b5b600860009054906101000a900460ff166003811115610e8457610e836125f6565b5b14610ec4576040517f08c379a0000000000000000000000000000000000000000000000000000000008152600401610ebb906129f3565b60405180910390fd5b6001600060028110610ed957610ed8612524565b5b0160009054906101000a900473ffffffffffffffffffffffffffffffffffffffff1673ffffffffffffffffffffffffffffffffffffffff163373ffffffffffffffffffffffffffffffffffffffff1603610f4d57806004600060028110610f4357610f42612524565b5b0181905550610fd2565b60018060028110610f6157610f60612524565b5b0160009054906101000a900473ffffffffffffffffffffffffffffffffffffffff1673ffffffffffffffffffffffffffffffffffffffff163373ffffffffffffffffffffffffffffffffffffffff1603610fd157806004600160028110610fcb57610fca612524565b5b01819055505b5b6000801b6004600060028110610feb57610fea612524565b5b01541415801561101457506000801b600460016002811061100f5761100e612524565b5b015414155b15611062576002600860006101000a81548160ff0219169083600381111561103f5761103e6125f6565b5b021790555042600b81905550610384600b5461105b9190612a13565b600c819055505b50565b6001816002811061107557600080fd5b016000915054906101000a900473ffffffffffffffffffffffffffffffffffffffff1681565b600b5481565b600c5481565b60095481565b600060038111156110c1576110c06125f6565b5b600860009054906101000a900460ff1660038111156110e3576110e26125f6565b5b14611123576040517f08c379a000000000000000000000000000000000000000000000000000000000815260040161111a90612ab5565b60405180910390fd5b66038d7ea4c68000341161116c576040517f08c379a000000000000000000000000000000000000000000000000000000000815260040161116390612b6d565b60405180910390fd5b600073ffffffffffffffffffffffffffffffffffffffff16600160006002811061119957611198612524565b5b0160009054906101000a900473ffffffffffffffffffffffffffffffffffffffff1673ffffffffffffffffffffffffffffffffffffffff160361127057346003819055507f9db05bb3970a86e9cf94348c35d0f8e6bcc0c07d2e8c3861803f20f8a60cffc160035460405161120e919061217c565b60405180910390a133600160006002811061122c5761122b612524565b5b0160006101000a81548173ffffffffffffffffffffffffffffffffffffffff021916908373ffffffffffffffffffffffffffffffffffffffff16021790555061145e565b600073ffffffffffffffffffffffffffffffffffffffff166001806002811061129c5761129b612524565b5b0160009054906101000a900473ffffffffffffffffffffffffffffffffffffffff1673ffffffffffffffffffffffffffffffffffffffff160361145d5760016000600281106112ee576112ed612524565b5b0160009054906101000a900473ffffffffffffffffffffffffffffffffffffffff1673ffffffffffffffffffffffffffffffffffffffff163373ffffffffffffffffffffffffffffffffffffffff160361137d576040517f08c379a000000000000000000000000000000000000000000000000000000000815260040161137490612bff565b60405180910390fd5b60035434146113c1576040517f08c379a00000000000000000000000000000000000000000000000000000000081526004016113b890612c91565b60405180910390fd5b33600180600281106113d6576113d5612524565b5b0160006101000a81548173ffffffffffffffffffffffffffffffffffffffff021916908373ffffffffffffffffffffffffffffffffffffffff1602179055506001600860006101000a81548160ff0219169083600381111561143b5761143a6125f6565b5b021790555042600981905550601e6009546114569190612a13565b600a819055505b5b565b600d5481565b600380811115611479576114786125f6565b5b600860009054906101000a900460ff16600381111561149b5761149a6125f6565b5b146114a557600080fd5b600160066000600281106114bc576114bb612524565b5b01540361185057600160066001600281106114da576114d9612524565b5b0154036116015760016000600281106114f6576114f5612524565b5b0160009054906101000a900473ffffffffffffffffffffffffffffffffffffffff1673ffffffffffffffffffffffffffffffffffffffff166108fc655af3107a40006003546115459190612927565b9081150290604051600060405180830381858888f19350505050158015611570573d6000803e3d6000fd5b506001806002811061158557611584612524565b5b0160009054906101000a900473ffffffffffffffffffffffffffffffffffffffff1673ffffffffffffffffffffffffffffffffffffffff166108fc655af3107a40006003546115d49190612927565b9081150290604051600060405180830381858888f193505050501580156115ff573d6000803e3d6000fd5b505b6002600660016002811061161857611617612524565b5b015403611727576001806002811061163357611632612524565b5b0160009054906101000a900473ffffffffffffffffffffffffffffffffffffffff1673ffffffffffffffffffffffffffffffffffffffff166108fc65b5e620f48000600354600261168491906128cd565b61168e9190612927565b9081150290604051600060405180830381858888f193505050501580156116b9573d6000803e3d6000fd5b507fe18095212f2536ad59bdecb643960fd95a4e36c9c2a48fd6dd9ef767d553f4d2600180600281106116ef576116ee612524565b5b0160009054906101000a900473ffffffffffffffffffffffffffffffffffffffff1660405161171e9190612509565b60405180910390a15b6003600660016002811061173e5761173d612524565b5b01540361184f57600160006002811061175a57611759612524565b5b0160009054906101000a900473ffffffffffffffffffffffffffffffffffffffff1673ffffffffffffffffffffffffffffffffffffffff166108fc65b5e620f4800060035460026117ab91906128cd565b6117b59190612927565b9081150290604051600060405180830381858888f193505050501580156117e0573d6000803e3d6000fd5b507fe18095212f2536ad59bdecb643960fd95a4e36c9c2a48fd6dd9ef767d553f4d2600160006002811061181757611816612524565b5b0160009054906101000a900473ffffffffffffffffffffffffffffffffffffffff166040516118469190612509565b60405180910390a15b5b6002600660006002811061186757611866612524565b5b015403611bfb576001600660016002811061188557611884612524565b5b0154036119965760016000600281106118a1576118a0612524565b5b0160009054906101000a900473ffffffffffffffffffffffffffffffffffffffff1673ffffffffffffffffffffffffffffffffffffffff166108fc65b5e620f4800060035460026118f291906128cd565b6118fc9190612927565b9081150290604051600060405180830381858888f19350505050158015611927573d6000803e3d6000fd5b507fe18095212f2536ad59bdecb643960fd95a4e36c9c2a48fd6dd9ef767d553f4d2600160006002811061195e5761195d612524565b5b0160009054906101000a900473ffffffffffffffffffffffffffffffffffffffff1660405161198d9190612509565b60405180910390a15b600260066001600281106119ad576119ac612524565b5b015403611ad45760016000600281106119c9576119c8612524565b5b0160009054906101000a900473ffffffffffffffffffffffffffffffffffffffff1673ffffffffffffffffffffffffffffffffffffffff166108fc655af3107a4000600354611a189190612927565b9081150290604051600060405180830381858888f19350505050158015611a43573d6000803e3d6000fd5b5060018060028110611a5857611a57612524565b5b0160009054906101000a900473ffffffffffffffffffffffffffffffffffffffff1673ffffffffffffffffffffffffffffffffffffffff166108fc655af3107a4000600354611aa79190612927565b9081150290604051600060405180830381858888f19350505050158015611ad2573d6000803e3d6000fd5b505b60036006600160028110611aeb57611aea612524565b5b015403611bfa5760018060028110611b0657611b05612524565b5b0160009054906101000a900473ffffffffffffffffffffffffffffffffffffffff1673ffffffffffffffffffffffffffffffffffffffff166108fc65b5e620f480006003546002611b5791906128cd565b611b619190612927565b9081150290604051600060405180830381858888f19350505050158015611b8c573d6000803e3d6000fd5b507fe18095212f2536ad59bdecb643960fd95a4e36c9c2a48fd6dd9ef767d553f4d260018060028110611bc257611bc1612524565b5b0160009054906101000a900473ffffffffffffffffffffffffffffffffffffffff16604051611bf19190612509565b60405180910390a15b5b60036006600060028110611c1257611c11612524565b5b015403611fa65760016006600160028110611c3057611c2f612524565b5b015403611d3f5760018060028110611c4b57611c4a612524565b5b0160009054906101000a900473ffffffffffffffffffffffffffffffffffffffff1673ffffffffffffffffffffffffffffffffffffffff166108fc65b5e620f480006003546002611c9c91906128cd565b611ca69190612927565b9081150290604051600060405180830381858888f19350505050158015611cd1573d6000803e3d6000fd5b507fe18095212f2536ad59bdecb643960fd95a4e36c9c2a48fd6dd9ef767d553f4d260018060028110611d0757611d06612524565b5b0160009054906101000a900473ffffffffffffffffffffffffffffffffffffffff16604051611d369190612509565b60405180910390a15b60026006600160028110611d5657611d55612524565b5b015403611e67576001600060028110611d7257611d71612524565b5b0160009054906101000a900473ffffffffffffffffffffffffffffffffffffffff1673ffffffffffffffffffffffffffffffffffffffff166108fc65b5e620f480006003546002611dc391906128cd565b611dcd9190612927565b9081150290604051600060405180830381858888f19350505050158015611df8573d6000803e3d6000fd5b507fe18095212f2536ad59bdecb643960fd95a4e36c9c2a48fd6dd9ef767d553f4d26001600060028110611e2f57611e2e612524565b5b0160009054906101000a900473ffffffffffffffffffffffffffffffffffffffff16604051611e5e9190612509565b60405180910390a15b60036006600160028110611e7e57611e7d612524565b5b015403611fa5576001600060028110611e9a57611e99612524565b5b0160009054906101000a900473ffffffffffffffffffffffffffffffffffffffff1673ffffffffffffffffffffffffffffffffffffffff166108fc655af3107a4000600354611ee99190612927565b9081150290604051600060405180830381858888f19350505050158015611f14573d6000803e3d6000fd5b5060018060028110611f2957611f28612524565b5b0160009054906101000a900473ffffffffffffffffffffffffffffffffffffffff1673ffffffffffffffffffffffffffffffffffffffff166108fc655af3107a4000600354611f789190612927565b9081150290604051600060405180830381858888f19350505050158015611fa3573d6000803e3d6000fd5b505b5b60008054906101000a900473ffffffffffffffffffffffffffffffffffffffff1673ffffffffffffffffffffffffffffffffffffffff166108fc479081150290604051600060405180830381858888f1935050505015801561200c573d6000803e3d6000fd5b50612015612017565b565b6000600160006002811061202e5761202d612524565b5b0160006101000a81548173ffffffffffffffffffffffffffffffffffffffff021916908373ffffffffffffffffffffffffffffffffffffffff16021790555060006001806002811061208357612082612524565b5b0160006101000a81548173ffffffffffffffffffffffffffffffffffffffff021916908373ffffffffffffffffffffffffffffffffffffffff1602179055506000801b60046000600281106120db576120da612524565b5b01819055506000801b60046001600281106120f9576120f8612524565b5b01819055506000600660006002811061211557612114612524565b5b01819055506000600660016002811061213157612130612524565b5b01819055506000600860006101000a81548160ff0219169083600381111561215c5761215b6125f6565b5b0217905550565b6000819050919050565b61217681612163565b82525050565b6000602082019050612191600083018461216d565b92915050565b6000604051905090565b600080fd5b600080fd5b6121b481612163565b81146121bf57600080fd5b50565b6000813590506121d1816121ab565b92915050565b600080fd5b600080fd5b6000601f19601f8301169050919050565b7f4e487b7100000000000000000000000000000000000000000000000000000000600052604160045260246000fd5b61222a826121e1565b810181811067ffffffffffffffff82111715612249576122486121f2565b5b80604052505050565b600061225c612197565b90506122688282612221565b919050565b600067ffffffffffffffff821115612288576122876121f2565b5b612291826121e1565b9050602081019050919050565b82818337600083830152505050565b60006122c06122bb8461226d565b612252565b9050828152602081018484840111156122dc576122db6121dc565b5b6122e784828561229e565b509392505050565b600082601f830112612304576123036121d7565b5b81356123148482602086016122ad565b91505092915050565b60008060408385031215612334576123336121a1565b5b6000612342858286016121c2565b925050602083013567ffffffffffffffff811115612363576123626121a6565b5b61236f858286016122ef565b9150509250929050565b600073ffffffffffffffffffffffffffffffffffffffff82169050919050565b60006123a482612379565b9050919050565b6123b481612399565b81146123bf57600080fd5b50565b6000813590506123d1816123ab565b92915050565b6000602082840312156123ed576123ec6121a1565b5b60006123fb848285016123c2565b91505092915050565b60006020828403121561241a576124196121a1565b5b6000612428848285016121c2565b91505092915050565b6000819050919050565b61244481612431565b82525050565b600060208201905061245f600083018461243b565b92915050565b600061247082612379565b9050919050565b61248081612465565b82525050565b600060208201905061249b6000830184612477565b92915050565b6124aa81612431565b81146124b557600080fd5b50565b6000813590506124c7816124a1565b92915050565b6000602082840312156124e3576124e26121a1565b5b60006124f1848285016124b8565b91505092915050565b61250381612399565b82525050565b600060208201905061251e60008301846124fa565b92915050565b7f4e487b7100000000000000000000000000000000000000000000000000000000600052603260045260246000fd5b600082825260208201905092915050565b7f44752062697374206b65696e20537069656c65722064657220616b746965766560008201527f6e2052756e646521000000000000000000000000000000000000000000000000602082015250565b60006125c0602883612553565b91506125cb82612564565b604082019050919050565b600060208201905081810360008301526125ef816125b3565b9050919050565b7f4e487b7100000000000000000000000000000000000000000000000000000000600052602160045260246000fd5b7f446965205761686c206b616e6e206e6f6368206e69636874206175666765646560008201527f636b742077657264656e21000000000000000000000000000000000000000000602082015250565b6000612681602b83612553565b915061268c82612625565b604082019050919050565b600060208201905081810360008301526126b081612674565b9050919050565b6000819050919050565b6126d26126cd82612163565b6126b7565b82525050565b600081519050919050565b600081905092915050565b60005b8381101561270c5780820151818401526020810190506126f1565b8381111561271b576000848401525b50505050565b600061272c826126d8565b61273681856126e3565b93506127468185602086016126ee565b80840191505092915050565b600061275e82856126c1565b60208201915061276e8284612721565b91508190509392505050565b7f447520626566696e64657374206469636820696d2066616c736368656e20537060008201527f69656c2d53746174757321000000000000000000000000000000000000000000602082015250565b60006127d6602b83612553565b91506127e18261277a565b604082019050919050565b60006020820190508181036000830152612805816127c9565b9050919050565b7f446965205a65697420697374206e6f6368206e6963687420616267656c61756660008201527f656e210000000000000000000000000000000000000000000000000000000000602082015250565b6000612868602383612553565b91506128738261280c565b604082019050919050565b600060208201905081810360008301526128978161285b565b9050919050565b7f4e487b7100000000000000000000000000000000000000000000000000000000600052601160045260246000fd5b60006128d882612163565b91506128e383612163565b9250817fffffffffffffffffffffffffffffffffffffffffffffffffffffffffffffffff048311821515161561291c5761291b61289e565b5b828202905092915050565b600061293282612163565b915061293d83612163565b9250828210156129505761294f61289e565b5b828203905092915050565b7f5761686c206b616e6e206e6f6368206e6963687420676574726f6666656e207760008201527f657264656e206f646572207775726465206265726569747320676574726f666660208201527f656e210000000000000000000000000000000000000000000000000000000000604082015250565b60006129dd604383612553565b91506129e88261295b565b606082019050919050565b60006020820190508181036000830152612a0c816129d0565b9050919050565b6000612a1e82612163565b9150612a2983612163565b9250827fffffffffffffffffffffffffffffffffffffffffffffffffffffffffffffffff03821115612a5e57612a5d61289e565b5b828201905092915050565b7f44617320537069656c206861742062657265697473206265676f6e6e656e2100600082015250565b6000612a9f601f83612553565b9150612aaa82612a69565b602082019050919050565b60006020820190508181036000830152612ace81612a92565b9050919050565b7f4475206d757373742065696e656e2045696e7361747a20286d696e2e20302c3060008201527f30312045544829207365747a656e3b20646572206f776e65722065726861656c60208201527f7420302c3030302e312045544821000000000000000000000000000000000000604082015250565b6000612b57604e83612553565b9150612b6282612ad5565b606082019050919050565b60006020820190508181036000830152612b8681612b4a565b9050919050565b7f4475206b616e6e7374206e6963687420676567656e20646963682073656c627360008201527f7420737069656c656e2100000000000000000000000000000000000000000000602082015250565b6000612be9602a83612553565b9150612bf482612b8d565b604082019050919050565b60006020820190508181036000830152612c1881612bdc565b9050919050565b7f4465696e20537069656c2d45696e7361747a206d7573732064656d20566f726760008201527f65676562656e656e20656e74737072656368656e210000000000000000000000602082015250565b6000612c7b603583612553565b9150612c8682612c1f565b604082019050919050565b60006020820190508181036000830152612caa81612c6e565b905091905056fea2646970667358221220f769223b8af4901e7e11c46ec1c750562fc59c2e9c3b18d0289840088a310f9a64736f6c634300080f0033",
  "immutableReferences": {},
  "source": "// SC fr das Spiel \"Schere, Stein, Papier\" als Ethereum DApp\r\n\r\n// SPDX-License-Identifier: GPL-3.0\r\n\r\npragma solidity ^0.8.7;\r\n\r\ncontract CloneFactory {\r\n\r\n  function createClone(address target) internal returns (address result) {\r\n    bytes20 targetBytes = bytes20(target);\r\n    assembly {\r\n      let clone := mload(0x40)\r\n      mstore(clone, 0x3d602d80600a3d3981f3363d3d373d3d3d363d73000000000000000000000000)\r\n      mstore(add(clone, 0x14), targetBytes)\r\n      mstore(add(clone, 0x28), 0x5af43d82803e903d91602b57fd5bf30000000000000000000000000000000000)\r\n      result := create(0, clone, 0x37)\r\n    }\r\n  }\r\n\r\n  function isClone(address target, address query) internal view returns (bool result) {\r\n    bytes20 targetBytes = bytes20(target);\r\n    assembly {\r\n      let clone := mload(0x40)\r\n      mstore(clone, 0x363d3d373d3d3d363d7300000000000000000000000000000000000000000000)\r\n      mstore(add(clone, 0xa), targetBytes)\r\n      mstore(add(clone, 0x1e), 0x5af43d82803e903d91602b57fd5bf30000000000000000000000000000000000)\r\n\r\n      let other := add(clone, 0x40)\r\n      extcodecopy(query, other, 0, 0x2d)\r\n      result := and(\r\n        eq(mload(clone), mload(other)),\r\n        eq(mload(add(clone, 0xd)), mload(add(other, 0xd)))\r\n      )\r\n    }\r\n  }\r\n}\r\n\r\ncontract Factory is CloneFactory {\r\n\r\n     address[] public childrenaddress;\r\n     address masterContract;\r\n     address public owner;\r\n\r\n     constructor(address _masterContract){\r\n         masterContract = _masterContract;\r\n         owner = msg.sender;\r\n     }\r\n\r\n    event Spielerzeugt(address Spieladdresse, address Factoryaddresse);\r\n\r\n    function createChild() external{\r\n        address child = createClone(masterContract);\r\n        childrenaddress.push(child);\r\n        emit Spielerzeugt(child, address(this));\r\n    }\r\n\r\n    /*function getAddress() public view returns(address) {\r\n        return address(this);\r\n    }*/\r\n\r\n    function ETHabheben() public  {\r\n        require (msg.sender == owner, \"Nur der Smart Contract owner/Betreiber ist berechtigt!\");\r\n        payable(owner).transfer(address(this).balance);\r\n    }\r\n\r\n    receive() external payable{}\r\n\r\n}\r\n\r\ncontract SchereSteinPapier {\r\n    \r\n    // speichern der Factory-Addresse\r\n    address payable public FactoryAddress;\r\n\r\n    // speichern der Spieler-Addressen\r\n    address [2] public Spieler;\r\n\r\n    // speichern des Spieleinsatzes\r\n    uint public Einsatz;\r\n\r\n    // speichern des verschlsselten Spiel-Zugs\r\n    bytes32[2] public VerschluesselterZug;\r\n \r\n    // speichern des entschlsselten Spiel-Zugs\r\n    // 0: initial\r\n    // 1: Schere\r\n    // 2: Stein\r\n    // 3: Papier\r\n    uint[2] public Zug;\r\n\r\n    // Spiel Status\r\n    enum Status {Beginn, Wahl, Entscheidung, Auszahlung}\r\n    Status status;\r\n\r\n    // Timer\r\n    uint public start;\r\n    uint public stop;\r\n    uint public start1;\r\n    uint public stop1 = 100000000000000000000;\r\n    uint public jetzt;\r\n\r\n    // event fr Einsatz\r\n    event EinsatzIst (uint Einsatz);\r\n\r\n    // event fr Gewinner\r\n    event GewinnerIst (address Gewinner);\r\n\r\n    // Modifier zum Prfen ob es sich um einen Spieler handelt\r\n    modifier IstSpieler() {\r\n        require (msg.sender == Spieler[0] || msg.sender == Spieler[1], \"Du bist kein Spieler der aktieven Runde!\");\r\n        _;\r\n    }\r\n\r\n    // Konstruktor legt owner fest und initialisiert Variablen\r\n    constructor() public {\r\n        initialisieren();\r\n    }\r\n\r\n    function init(address _FactoryAddress) external {\r\n        FactoryAddress = payable(_FactoryAddress);\r\n    }\r\n\r\n    // Funktion zum initialisieren des Spiels\r\n    function initialisieren() private {\r\n        Spieler[0] = payable(address(0));\r\n        Spieler[1] = payable(address(0));\r\n        VerschluesselterZug[0] = 0;\r\n        VerschluesselterZug[1] = 0;\r\n        Zug[0] = 0;\r\n        Zug[1] = 0;\r\n        status = Status.Beginn;\r\n    }\r\n\r\n    // Funktion zum Spiel-Beitritt\r\n    function spielen() public payable {\r\n         require (status == Status.Beginn, \"Das Spiel hat bereits begonnen!\");\r\n         require (msg.value > 1000000000000000, \"Du musst einen Einsatz (min. 0,001 ETH) setzen; der owner erhaelt 0,000.1 ETH!\");\r\n         if (Spieler[0] == address(0)) {\r\n             Einsatz = msg.value;\r\n             emit EinsatzIst(Einsatz);\r\n             Spieler[0] = payable(msg.sender);\r\n         }\r\n         else if (Spieler[1] == address(0)) {\r\n             require (msg.sender != Spieler[0], \"Du kannst nicht gegen dich selbst spielen!\");\r\n             require (msg.value == Einsatz, \"Dein Spiel-Einsatz muss dem Vorgegebenen entsprechen!\");\r\n             Spieler[1] = payable(msg.sender);\r\n             status = Status.Wahl;\r\n             start = block.timestamp;\r\n             stop = start + 30;\r\n         }\r\n    }\r\n\r\n    // Funktion zum Whlen von Schere, Stein oder Papier\r\n    function waehlen(bytes32 wahl) public IstSpieler {\r\n        require (status == Status.Wahl, \"Wahl kann noch nicht getroffen werden oder wurde bereits getroffen!\");\r\n        if (msg.sender == Spieler[0]) {\r\n            VerschluesselterZug[0] = wahl;\r\n        }\r\n        else if (msg.sender == Spieler[1]) {\r\n            VerschluesselterZug[1] = wahl;\r\n        }\r\n        if (VerschluesselterZug[0] != 0 && VerschluesselterZug[1] != 0) {\r\n            status = Status.Entscheidung;\r\n            start1 = block.timestamp;\r\n            stop1 = start1 + 900;\r\n        }\r\n    }\r\n\r\n    // Funktion deckt Wahl des Spielers auf\r\n    function wahlentschluesseln(uint wahl, string memory schluessel) public IstSpieler {\r\n        require (status == Status.Entscheidung, \"Die Wahl kann noch nicht aufgedeckt werden!\");\r\n        bytes32 verschluesselt = keccak256(abi.encodePacked(wahl, schluessel)); //keccak256 takes a hex argument and not a string\r\n        if (msg.sender == Spieler[0]) {\r\n            if (verschluesselt == VerschluesselterZug[0]) {\r\n                Zug[0] = wahl;\r\n            }\r\n        }\r\n        else {\r\n            if (verschluesselt == VerschluesselterZug[1]) {\r\n                Zug[1] = wahl;\r\n            }\r\n        }\r\n        if (Zug[0] != 0 && Zug[1] != 0) {\r\n            status = Status.Auszahlung;\r\n            entscheidung();\r\n        }\r\n    }\r\n\r\n    // Funktion zur Entscheidungsfindung des Spiels\r\n    function entscheidung() private {\r\n        require (status == Status.Auszahlung);\r\n        if (Zug[0] == 1) {\r\n            if (Zug[1] == 1) {\r\n                payable(Spieler[0]).transfer(Einsatz-100000000000000);\r\n                payable(Spieler[1]).transfer(Einsatz-100000000000000);\r\n            }\r\n            if (Zug[1] == 2) {\r\n                payable(Spieler[1]).transfer(2*Einsatz-200000000000000);\r\n                emit GewinnerIst(Spieler[1]);\r\n            }\r\n            if (Zug[1] == 3) {\r\n                payable(Spieler[0]).transfer(2*Einsatz-200000000000000);\r\n                emit GewinnerIst(Spieler[0]);\r\n            }\r\n        }\r\n        if (Zug[0] == 2) {\r\n            if (Zug[1] == 1) {\r\n                payable(Spieler[0]).transfer(2*Einsatz-200000000000000);\r\n                emit GewinnerIst(Spieler[0]);\r\n            }\r\n            if (Zug[1] == 2) {\r\n                payable(Spieler[0]).transfer(Einsatz-100000000000000);\r\n                payable(Spieler[1]).transfer(Einsatz-100000000000000);\r\n            }\r\n            if (Zug[1] == 3) {\r\n                payable(Spieler[1]).transfer(2*Einsatz-200000000000000);\r\n                emit GewinnerIst(Spieler[1]);\r\n            }\r\n        }\r\n        if (Zug[0] == 3) {\r\n            if (Zug[1] == 1) {\r\n                payable(Spieler[1]).transfer(2*Einsatz-200000000000000);\r\n                emit GewinnerIst(Spieler[1]);\r\n            }\r\n            if (Zug[1] == 2) {\r\n                payable(Spieler[0]).transfer(2*Einsatz-200000000000000);\r\n                emit GewinnerIst(Spieler[0]);\r\n            }\r\n            if (Zug[1] == 3) {\r\n                payable(Spieler[0]).transfer(Einsatz-100000000000000);\r\n                payable(Spieler[1]).transfer(Einsatz-100000000000000);\r\n            }\r\n        }\r\n        payable(FactoryAddress).transfer(address(this).balance); \r\n        initialisieren();\r\n    }\r\n\r\n    // Funktion zum Erstatten des Einsatzes\r\n    function erstatten() public IstSpieler {\r\n        jetzt = block.timestamp;\r\n        require (status == Status.Wahl || status == Status.Entscheidung, \"Du befindest dich im falschen Spiel-Status!\");\r\n        require (stop < jetzt || stop1 < jetzt, \"Die Zeit ist noch nicht abgelaufen!\");\r\n        if (stop < jetzt) {\r\n            if (VerschluesselterZug[0] == 0) {\r\n                payable(Spieler[1]).transfer(2*Einsatz-200000000000000);\r\n                initialisieren();\r\n            }\r\n            if (VerschluesselterZug[1] == 0) {\r\n                payable(Spieler[0]).transfer(2*Einsatz-200000000000000);\r\n                initialisieren();\r\n            }\r\n            payable(FactoryAddress).transfer(address(this).balance);\r\n        }\r\n        else if (stop1 < jetzt) {\r\n            if (Zug[0] == 0) {\r\n                payable(Spieler[1]).transfer(2*Einsatz-200000000000000);\r\n                initialisieren();\r\n            }\r\n            if (Zug[1] == 0) {\r\n                payable(Spieler[0]).transfer(2*Einsatz-200000000000000);\r\n                initialisieren();\r\n            }\r\n            payable(FactoryAddress).transfer(address(this).balance);\r\n        }\r\n    }\r\n}",
  "sourcePath": "C:\\Users\\pierr\\Desktop\\Blockchain\\Blockchain3\\SSPFPfinal\\contracts\\SchereSteinPapier.sol",
  "compiler": {
    "name": "solc",
    "version": "0.8.15+commit.e14f2714.Emscripten.clang"
  },
  "schemaVersion": "3.4.7",
  "updatedAt": "2022-07-01T12:27:52.287Z",
  "networkType": "ethereum",
  "devdoc": {
    "kind": "dev",
    "methods": {},
    "version": 1
  },
  "userdoc": {
    "kind": "user",
    "methods": {},
    "version": 1
  }
}