{
  "contractName": "SchereSteinPapier",
  "abi": [
    {
      "inputs": [],
      "stateMutability": "nonpayable",
      "type": "constructor"
    },
    {
      "anonymous": false,
      "inputs": [
        {
          "indexed": false,
          "internalType": "uint256",
          "name": "Einsatz",
          "type": "uint256"
        }
      ],
      "name": "EinsatzIst",
      "type": "event"
    },
    {
      "anonymous": false,
      "inputs": [
        {
          "indexed": false,
          "internalType": "address",
          "name": "Gewinner",
          "type": "address"
        }
      ],
      "name": "GewinnerIst",
      "type": "event"
    },
    {
      "inputs": [],
      "name": "Einsatz",
      "outputs": [
        {
          "internalType": "uint256",
          "name": "",
          "type": "uint256"
        }
      ],
      "stateMutability": "view",
      "type": "function",
      "constant": true
    },
    {
      "inputs": [],
      "name": "FactoryAddress",
      "outputs": [
        {
          "internalType": "address payable",
          "name": "",
          "type": "address"
        }
      ],
      "stateMutability": "view",
      "type": "function",
      "constant": true
    },
    {
      "inputs": [
        {
          "internalType": "uint256",
          "name": "",
          "type": "uint256"
        }
      ],
      "name": "Spieler",
      "outputs": [
        {
          "internalType": "address",
          "name": "",
          "type": "address"
        }
      ],
      "stateMutability": "view",
      "type": "function",
      "constant": true
    },
    {
      "inputs": [
        {
          "internalType": "uint256",
          "name": "",
          "type": "uint256"
        }
      ],
      "name": "VerschluesselterZug",
      "outputs": [
        {
          "internalType": "bytes32",
          "name": "",
          "type": "bytes32"
        }
      ],
      "stateMutability": "view",
      "type": "function",
      "constant": true
    },
    {
      "inputs": [
        {
          "internalType": "uint256",
          "name": "",
          "type": "uint256"
        }
      ],
      "name": "Zug",
      "outputs": [
        {
          "internalType": "uint256",
          "name": "",
          "type": "uint256"
        }
      ],
      "stateMutability": "view",
      "type": "function",
      "constant": true
    },
    {
      "inputs": [],
      "name": "jetzt",
      "outputs": [
        {
          "internalType": "uint256",
          "name": "",
          "type": "uint256"
        }
      ],
      "stateMutability": "view",
      "type": "function",
      "constant": true
    },
    {
      "inputs": [],
      "name": "start",
      "outputs": [
        {
          "internalType": "uint256",
          "name": "",
          "type": "uint256"
        }
      ],
      "stateMutability": "view",
      "type": "function",
      "constant": true
    },
    {
      "inputs": [],
      "name": "start1",
      "outputs": [
        {
          "internalType": "uint256",
          "name": "",
          "type": "uint256"
        }
      ],
      "stateMutability": "view",
      "type": "function",
      "constant": true
    },
    {
      "inputs": [],
      "name": "stop",
      "outputs": [
        {
          "internalType": "uint256",
          "name": "",
          "type": "uint256"
        }
      ],
      "stateMutability": "view",
      "type": "function",
      "constant": true
    },
    {
      "inputs": [],
      "name": "stop1",
      "outputs": [
        {
          "internalType": "uint256",
          "name": "",
          "type": "uint256"
        }
      ],
      "stateMutability": "view",
      "type": "function",
      "constant": true
    },
    {
      "inputs": [
        {
          "internalType": "address",
          "name": "_FactoryAddress",
          "type": "address"
        }
      ],
      "name": "init",
      "outputs": [],
      "stateMutability": "nonpayable",
      "type": "function"
    },
    {
      "inputs": [],
      "name": "spielen",
      "outputs": [],
      "stateMutability": "payable",
      "type": "function",
      "payable": true
    },
    {
      "inputs": [
        {
          "internalType": "bytes32",
          "name": "wahl",
          "type": "bytes32"
        }
      ],
      "name": "waehlen",
      "outputs": [],
      "stateMutability": "nonpayable",
      "type": "function"
    },
    {
      "inputs": [
        {
          "internalType": "uint256",
          "name": "wahl",
          "type": "uint256"
        },
        {
          "internalType": "string",
          "name": "schluessel",
          "type": "string"
        }
      ],
      "name": "wahlentschluesseln",
      "outputs": [],
      "stateMutability": "nonpayable",
      "type": "function"
    },
    {
      "inputs": [],
      "name": "erstatten",
      "outputs": [],
      "stateMutability": "nonpayable",
      "type": "function"
    }
  ],
  "bytecode": "0x60806040523480156200001157600080fd5b50620000226200002860201b60201c565b620001e7565b6000600160006002811062000042576200004162000189565b5b0160006101000a81548173ffffffffffffffffffffffffffffffffffffffff021916908373ffffffffffffffffffffffffffffffffffffffff1602179055506000600180600281106200009a576200009962000189565b5b0160006101000a81548173ffffffffffffffffffffffffffffffffffffffff021916908373ffffffffffffffffffffffffffffffffffffffff1602179055506000801b6004600060028110620000f557620000f462000189565b5b01819055506000801b600460016002811062000116576200011562000189565b5b01819055506000600660006002811062000135576200013462000189565b5b01819055506000600660016002811062000154576200015362000189565b5b01819055506000600860006101000a81548160ff02191690836003811115620001825762000181620001b8565b5b0217905550565b7f4e487b7100000000000000000000000000000000000000000000000000000000600052603260045260246000fd5b7f4e487b7100000000000000000000000000000000000000000000000000000000600052602160045260246000fd5b612c4f80620001f76000396000f3fe6080604052600436106100e75760003560e01c8063922c73161161008a578063b23b64f811610059578063b23b64f8146102e1578063be9a65551461030c578063cf25999e14610337578063f71aad3914610341576100e7565b8063922c731614610225578063a3ac3ff814610250578063aaf3c6aa14610279578063ac4b090e146102b6576100e7565b806319ab453c116100c657806319ab453c1461016b578063376b3ca014610194578063394a0d22146101d157806353cc3c9a1461020e576100e7565b80621e20db146100ec57806307da68f5146101175780630e29f88514610142575b600080fd5b3480156100f857600080fd5b5061010161036c565b60405161010e9190612150565b60405180910390f35b34801561012357600080fd5b5061012c610372565b6040516101399190612150565b60405180910390f35b34801561014e57600080fd5b50610169600480360381019061016491906122f1565b610378565b005b34801561017757600080fd5b50610192600480360381019061018d91906123ab565b610687565b005b3480156101a057600080fd5b506101bb60048036038101906101b691906123d8565b6106ca565b6040516101c89190612150565b60405180910390f35b3480156101dd57600080fd5b506101f860048036038101906101f391906123d8565b6106e5565b604051610205919061241e565b60405180910390f35b34801561021a57600080fd5b50610223610700565b005b34801561023157600080fd5b5061023a610cef565b604051610247919061245a565b60405180910390f35b34801561025c57600080fd5b50610277600480360381019061027291906124a1565b610d13565b005b34801561028557600080fd5b506102a0600480360381019061029b91906123d8565b611039565b6040516102ad91906124dd565b60405180910390f35b3480156102c257600080fd5b506102cb61106f565b6040516102d89190612150565b60405180910390f35b3480156102ed57600080fd5b506102f6611075565b6040516103039190612150565b60405180910390f35b34801561031857600080fd5b5061032161107b565b60405161032e9190612150565b60405180910390f35b61033f611081565b005b34801561034d57600080fd5b50610356611434565b6040516103639190612150565b60405180910390f35b60035481565b600a5481565b600160006002811061038d5761038c6124f8565b5b0160009054906101000a900473ffffffffffffffffffffffffffffffffffffffff1673ffffffffffffffffffffffffffffffffffffffff163373ffffffffffffffffffffffffffffffffffffffff1614806104485750600180600281106103f7576103f66124f8565b5b0160009054906101000a900473ffffffffffffffffffffffffffffffffffffffff1673ffffffffffffffffffffffffffffffffffffffff163373ffffffffffffffffffffffffffffffffffffffff16145b610487576040517f08c379a000000000000000000000000000000000000000000000000000000000815260040161047e906125aa565b60405180910390fd5b6002600381111561049b5761049a6125ca565b5b600860009054906101000a900460ff1660038111156104bd576104bc6125ca565b5b146104fd576040517f08c379a00000000000000000000000000000000000000000000000000000000081526004016104f49061266b565b60405180910390fd5b60008282604051602001610512929190612726565b604051602081830303815290604052805190602001209050600160006002811061053f5761053e6124f8565b5b0160009054906101000a900473ffffffffffffffffffffffffffffffffffffffff1673ffffffffffffffffffffffffffffffffffffffff163373ffffffffffffffffffffffffffffffffffffffff16036105d15760046000600281106105a8576105a76124f8565b5b015481036105cc578260066000600281106105c6576105c56124f8565b5b01819055505b61060b565b60046001600281106105e6576105e56124f8565b5b0154810361060a57826006600160028110610604576106036124f8565b5b01819055505b5b60006006600060028110610622576106216124f8565b5b015414158015610649575060006006600160028110610644576106436124f8565b5b015414155b15610682576003600860006101000a81548160ff02191690836003811115610674576106736125ca565b5b021790555061068161143a565b5b505050565b806000806101000a81548173ffffffffffffffffffffffffffffffffffffffff021916908373ffffffffffffffffffffffffffffffffffffffff16021790555050565b600681600281106106da57600080fd5b016000915090505481565b600481600281106106f557600080fd5b016000915090505481565b6001600060028110610715576107146124f8565b5b0160009054906101000a900473ffffffffffffffffffffffffffffffffffffffff1673ffffffffffffffffffffffffffffffffffffffff163373ffffffffffffffffffffffffffffffffffffffff1614806107d057506001806002811061077f5761077e6124f8565b5b0160009054906101000a900473ffffffffffffffffffffffffffffffffffffffff1673ffffffffffffffffffffffffffffffffffffffff163373ffffffffffffffffffffffffffffffffffffffff16145b61080f576040517f08c379a0000000000000000000000000000000000000000000000000000000008152600401610806906125aa565b60405180910390fd5b42600d819055506001600381111561082a576108296125ca565b5b600860009054906101000a900460ff16600381111561084c5761084b6125ca565b5b14801561085c5750600d54600a54105b806108a9575060026003811115610876576108756125ca565b5b600860009054906101000a900460ff166003811115610898576108976125ca565b5b1480156108a85750600d54600c54105b5b6108e8576040517f08c379a00000000000000000000000000000000000000000000000000000000081526004016108df906127e6565b60405180910390fd5b600d54600a541015610aee576000801b600460006002811061090d5761090c6124f8565b5b0154036109bc5760018060028110610928576109276124f8565b5b0160009054906101000a900473ffffffffffffffffffffffffffffffffffffffff1673ffffffffffffffffffffffffffffffffffffffff166108fc65b5e620f4800060035460026109799190612835565b610983919061288f565b9081150290604051600060405180830381858888f193505050501580156109ae573d6000803e3d6000fd5b506109b7611feb565b610a82565b6000801b60046001600281106109d5576109d46124f8565b5b015403610a815760016000600281106109f1576109f06124f8565b5b0160009054906101000a900473ffffffffffffffffffffffffffffffffffffffff1673ffffffffffffffffffffffffffffffffffffffff166108fc65b5e620f480006003546002610a429190612835565b610a4c919061288f565b9081150290604051600060405180830381858888f19350505050158015610a77573d6000803e3d6000fd5b50610a80611feb565b5b5b60008054906101000a900473ffffffffffffffffffffffffffffffffffffffff1673ffffffffffffffffffffffffffffffffffffffff166108fc479081150290604051600060405180830381858888f19350505050158015610ae8573d6000803e3d6000fd5b50610ced565b600d54600c541015610cec5760006006600060028110610b1157610b106124f8565b5b015403610bc05760018060028110610b2c57610b2b6124f8565b5b0160009054906101000a900473ffffffffffffffffffffffffffffffffffffffff1673ffffffffffffffffffffffffffffffffffffffff166108fc65b5e620f480006003546002610b7d9190612835565b610b87919061288f565b9081150290604051600060405180830381858888f19350505050158015610bb2573d6000803e3d6000fd5b50610bbb611feb565b610c84565b60006006600160028110610bd757610bd66124f8565b5b015403610c83576001600060028110610bf357610bf26124f8565b5b0160009054906101000a900473ffffffffffffffffffffffffffffffffffffffff1673ffffffffffffffffffffffffffffffffffffffff166108fc65b5e620f480006003546002610c449190612835565b610c4e919061288f565b9081150290604051600060405180830381858888f19350505050158015610c79573d6000803e3d6000fd5b50610c82611feb565b5b5b60008054906101000a900473ffffffffffffffffffffffffffffffffffffffff1673ffffffffffffffffffffffffffffffffffffffff166108fc479081150290604051600060405180830381858888f19350505050158015610cea573d6000803e3d6000fd5b505b5b565b60008054906101000a900473ffffffffffffffffffffffffffffffffffffffff1681565b6001600060028110610d2857610d276124f8565b5b0160009054906101000a900473ffffffffffffffffffffffffffffffffffffffff1673ffffffffffffffffffffffffffffffffffffffff163373ffffffffffffffffffffffffffffffffffffffff161480610de3575060018060028110610d9257610d916124f8565b5b0160009054906101000a900473ffffffffffffffffffffffffffffffffffffffff1673ffffffffffffffffffffffffffffffffffffffff163373ffffffffffffffffffffffffffffffffffffffff16145b610e22576040517f08c379a0000000000000000000000000000000000000000000000000000000008152600401610e19906125aa565b60405180910390fd5b60016003811115610e3657610e356125ca565b5b600860009054906101000a900460ff166003811115610e5857610e576125ca565b5b14610e98576040517f08c379a0000000000000000000000000000000000000000000000000000000008152600401610e8f9061295b565b60405180910390fd5b6001600060028110610ead57610eac6124f8565b5b0160009054906101000a900473ffffffffffffffffffffffffffffffffffffffff1673ffffffffffffffffffffffffffffffffffffffff163373ffffffffffffffffffffffffffffffffffffffff1603610f2157806004600060028110610f1757610f166124f8565b5b0181905550610fa6565b60018060028110610f3557610f346124f8565b5b0160009054906101000a900473ffffffffffffffffffffffffffffffffffffffff1673ffffffffffffffffffffffffffffffffffffffff163373ffffffffffffffffffffffffffffffffffffffff1603610fa557806004600160028110610f9f57610f9e6124f8565b5b01819055505b5b6000801b6004600060028110610fbf57610fbe6124f8565b5b015414158015610fe857506000801b6004600160028110610fe357610fe26124f8565b5b015414155b15611036576002600860006101000a81548160ff02191690836003811115611013576110126125ca565b5b021790555042600b81905550610384600b5461102f919061297b565b600c819055505b50565b6001816002811061104957600080fd5b016000915054906101000a900473ffffffffffffffffffffffffffffffffffffffff1681565b600b5481565b600c5481565b60095481565b60006003811115611095576110946125ca565b5b600860009054906101000a900460ff1660038111156110b7576110b66125ca565b5b146110f7576040517f08c379a00000000000000000000000000000000000000000000000000000000081526004016110ee90612a1d565b60405180910390fd5b66038d7ea4c680003411611140576040517f08c379a000000000000000000000000000000000000000000000000000000000815260040161113790612ad5565b60405180910390fd5b600073ffffffffffffffffffffffffffffffffffffffff16600160006002811061116d5761116c6124f8565b5b0160009054906101000a900473ffffffffffffffffffffffffffffffffffffffff1673ffffffffffffffffffffffffffffffffffffffff160361124457346003819055507f9db05bb3970a86e9cf94348c35d0f8e6bcc0c07d2e8c3861803f20f8a60cffc16003546040516111e29190612150565b60405180910390a1336001600060028110611200576111ff6124f8565b5b0160006101000a81548173ffffffffffffffffffffffffffffffffffffffff021916908373ffffffffffffffffffffffffffffffffffffffff160217905550611432565b600073ffffffffffffffffffffffffffffffffffffffff16600180600281106112705761126f6124f8565b5b0160009054906101000a900473ffffffffffffffffffffffffffffffffffffffff1673ffffffffffffffffffffffffffffffffffffffff16036114315760016000600281106112c2576112c16124f8565b5b0160009054906101000a900473ffffffffffffffffffffffffffffffffffffffff1673ffffffffffffffffffffffffffffffffffffffff163373ffffffffffffffffffffffffffffffffffffffff1603611351576040517f08c379a000000000000000000000000000000000000000000000000000000000815260040161134890612b67565b60405180910390fd5b6003543414611395576040517f08c379a000000000000000000000000000000000000000000000000000000000815260040161138c90612bf9565b60405180910390fd5b33600180600281106113aa576113a96124f8565b5b0160006101000a81548173ffffffffffffffffffffffffffffffffffffffff021916908373ffffffffffffffffffffffffffffffffffffffff1602179055506001600860006101000a81548160ff0219169083600381111561140f5761140e6125ca565b5b021790555042600981905550601e60095461142a919061297b565b600a819055505b5b565b600d5481565b60038081111561144d5761144c6125ca565b5b600860009054906101000a900460ff16600381111561146f5761146e6125ca565b5b1461147957600080fd5b600160066000600281106114905761148f6124f8565b5b01540361182457600160066001600281106114ae576114ad6124f8565b5b0154036115d55760016000600281106114ca576114c96124f8565b5b0160009054906101000a900473ffffffffffffffffffffffffffffffffffffffff1673ffffffffffffffffffffffffffffffffffffffff166108fc655af3107a4000600354611519919061288f565b9081150290604051600060405180830381858888f19350505050158015611544573d6000803e3d6000fd5b5060018060028110611559576115586124f8565b5b0160009054906101000a900473ffffffffffffffffffffffffffffffffffffffff1673ffffffffffffffffffffffffffffffffffffffff166108fc655af3107a40006003546115a8919061288f565b9081150290604051600060405180830381858888f193505050501580156115d3573d6000803e3d6000fd5b505b600260066001600281106115ec576115eb6124f8565b5b0154036116fb5760018060028110611607576116066124f8565b5b0160009054906101000a900473ffffffffffffffffffffffffffffffffffffffff1673ffffffffffffffffffffffffffffffffffffffff166108fc65b5e620f4800060035460026116589190612835565b611662919061288f565b9081150290604051600060405180830381858888f1935050505015801561168d573d6000803e3d6000fd5b507fe18095212f2536ad59bdecb643960fd95a4e36c9c2a48fd6dd9ef767d553f4d2600180600281106116c3576116c26124f8565b5b0160009054906101000a900473ffffffffffffffffffffffffffffffffffffffff166040516116f291906124dd565b60405180910390a15b60036006600160028110611712576117116124f8565b5b01540361182357600160006002811061172e5761172d6124f8565b5b0160009054906101000a900473ffffffffffffffffffffffffffffffffffffffff1673ffffffffffffffffffffffffffffffffffffffff166108fc65b5e620f48000600354600261177f9190612835565b611789919061288f565b9081150290604051600060405180830381858888f193505050501580156117b4573d6000803e3d6000fd5b507fe18095212f2536ad59bdecb643960fd95a4e36c9c2a48fd6dd9ef767d553f4d260016000600281106117eb576117ea6124f8565b5b0160009054906101000a900473ffffffffffffffffffffffffffffffffffffffff1660405161181a91906124dd565b60405180910390a15b5b6002600660006002811061183b5761183a6124f8565b5b015403611bcf5760016006600160028110611859576118586124f8565b5b01540361196a576001600060028110611875576118746124f8565b5b0160009054906101000a900473ffffffffffffffffffffffffffffffffffffffff1673ffffffffffffffffffffffffffffffffffffffff166108fc65b5e620f4800060035460026118c69190612835565b6118d0919061288f565b9081150290604051600060405180830381858888f193505050501580156118fb573d6000803e3d6000fd5b507fe18095212f2536ad59bdecb643960fd95a4e36c9c2a48fd6dd9ef767d553f4d26001600060028110611932576119316124f8565b5b0160009054906101000a900473ffffffffffffffffffffffffffffffffffffffff1660405161196191906124dd565b60405180910390a15b60026006600160028110611981576119806124f8565b5b015403611aa857600160006002811061199d5761199c6124f8565b5b0160009054906101000a900473ffffffffffffffffffffffffffffffffffffffff1673ffffffffffffffffffffffffffffffffffffffff166108fc655af3107a40006003546119ec919061288f565b9081150290604051600060405180830381858888f19350505050158015611a17573d6000803e3d6000fd5b5060018060028110611a2c57611a2b6124f8565b5b0160009054906101000a900473ffffffffffffffffffffffffffffffffffffffff1673ffffffffffffffffffffffffffffffffffffffff166108fc655af3107a4000600354611a7b919061288f565b9081150290604051600060405180830381858888f19350505050158015611aa6573d6000803e3d6000fd5b505b60036006600160028110611abf57611abe6124f8565b5b015403611bce5760018060028110611ada57611ad96124f8565b5b0160009054906101000a900473ffffffffffffffffffffffffffffffffffffffff1673ffffffffffffffffffffffffffffffffffffffff166108fc65b5e620f480006003546002611b2b9190612835565b611b35919061288f565b9081150290604051600060405180830381858888f19350505050158015611b60573d6000803e3d6000fd5b507fe18095212f2536ad59bdecb643960fd95a4e36c9c2a48fd6dd9ef767d553f4d260018060028110611b9657611b956124f8565b5b0160009054906101000a900473ffffffffffffffffffffffffffffffffffffffff16604051611bc591906124dd565b60405180910390a15b5b60036006600060028110611be657611be56124f8565b5b015403611f7a5760016006600160028110611c0457611c036124f8565b5b015403611d135760018060028110611c1f57611c1e6124f8565b5b0160009054906101000a900473ffffffffffffffffffffffffffffffffffffffff1673ffffffffffffffffffffffffffffffffffffffff166108fc65b5e620f480006003546002611c709190612835565b611c7a919061288f565b9081150290604051600060405180830381858888f19350505050158015611ca5573d6000803e3d6000fd5b507fe18095212f2536ad59bdecb643960fd95a4e36c9c2a48fd6dd9ef767d553f4d260018060028110611cdb57611cda6124f8565b5b0160009054906101000a900473ffffffffffffffffffffffffffffffffffffffff16604051611d0a91906124dd565b60405180910390a15b60026006600160028110611d2a57611d296124f8565b5b015403611e3b576001600060028110611d4657611d456124f8565b5b0160009054906101000a900473ffffffffffffffffffffffffffffffffffffffff1673ffffffffffffffffffffffffffffffffffffffff166108fc65b5e620f480006003546002611d979190612835565b611da1919061288f565b9081150290604051600060405180830381858888f19350505050158015611dcc573d6000803e3d6000fd5b507fe18095212f2536ad59bdecb643960fd95a4e36c9c2a48fd6dd9ef767d553f4d26001600060028110611e0357611e026124f8565b5b0160009054906101000a900473ffffffffffffffffffffffffffffffffffffffff16604051611e3291906124dd565b60405180910390a15b60036006600160028110611e5257611e516124f8565b5b015403611f79576001600060028110611e6e57611e6d6124f8565b5b0160009054906101000a900473ffffffffffffffffffffffffffffffffffffffff1673ffffffffffffffffffffffffffffffffffffffff166108fc655af3107a4000600354611ebd919061288f565b9081150290604051600060405180830381858888f19350505050158015611ee8573d6000803e3d6000fd5b5060018060028110611efd57611efc6124f8565b5b0160009054906101000a900473ffffffffffffffffffffffffffffffffffffffff1673ffffffffffffffffffffffffffffffffffffffff166108fc655af3107a4000600354611f4c919061288f565b9081150290604051600060405180830381858888f19350505050158015611f77573d6000803e3d6000fd5b505b5b60008054906101000a900473ffffffffffffffffffffffffffffffffffffffff1673ffffffffffffffffffffffffffffffffffffffff166108fc479081150290604051600060405180830381858888f19350505050158015611fe0573d6000803e3d6000fd5b50611fe9611feb565b565b60006001600060028110612002576120016124f8565b5b0160006101000a81548173ffffffffffffffffffffffffffffffffffffffff021916908373ffffffffffffffffffffffffffffffffffffffff160217905550600060018060028110612057576120566124f8565b5b0160006101000a81548173ffffffffffffffffffffffffffffffffffffffff021916908373ffffffffffffffffffffffffffffffffffffffff1602179055506000801b60046000600281106120af576120ae6124f8565b5b01819055506000801b60046001600281106120cd576120cc6124f8565b5b0181905550600060066000600281106120e9576120e86124f8565b5b018190555060006006600160028110612105576121046124f8565b5b01819055506000600860006101000a81548160ff021916908360038111156121305761212f6125ca565b5b0217905550565b6000819050919050565b61214a81612137565b82525050565b60006020820190506121656000830184612141565b92915050565b6000604051905090565b600080fd5b600080fd5b61218881612137565b811461219357600080fd5b50565b6000813590506121a58161217f565b92915050565b600080fd5b600080fd5b6000601f19601f8301169050919050565b7f4e487b7100000000000000000000000000000000000000000000000000000000600052604160045260246000fd5b6121fe826121b5565b810181811067ffffffffffffffff8211171561221d5761221c6121c6565b5b80604052505050565b600061223061216b565b905061223c82826121f5565b919050565b600067ffffffffffffffff82111561225c5761225b6121c6565b5b612265826121b5565b9050602081019050919050565b82818337600083830152505050565b600061229461228f84612241565b612226565b9050828152602081018484840111156122b0576122af6121b0565b5b6122bb848285612272565b509392505050565b600082601f8301126122d8576122d76121ab565b5b81356122e8848260208601612281565b91505092915050565b6000806040838503121561230857612307612175565b5b600061231685828601612196565b925050602083013567ffffffffffffffff8111156123375761233661217a565b5b612343858286016122c3565b9150509250929050565b600073ffffffffffffffffffffffffffffffffffffffff82169050919050565b60006123788261234d565b9050919050565b6123888161236d565b811461239357600080fd5b50565b6000813590506123a58161237f565b92915050565b6000602082840312156123c1576123c0612175565b5b60006123cf84828501612396565b91505092915050565b6000602082840312156123ee576123ed612175565b5b60006123fc84828501612196565b91505092915050565b6000819050919050565b61241881612405565b82525050565b6000602082019050612433600083018461240f565b92915050565b60006124448261234d565b9050919050565b61245481612439565b82525050565b600060208201905061246f600083018461244b565b92915050565b61247e81612405565b811461248957600080fd5b50565b60008135905061249b81612475565b92915050565b6000602082840312156124b7576124b6612175565b5b60006124c58482850161248c565b91505092915050565b6124d78161236d565b82525050565b60006020820190506124f260008301846124ce565b92915050565b7f4e487b7100000000000000000000000000000000000000000000000000000000600052603260045260246000fd5b600082825260208201905092915050565b7f44752062697374206b65696e20537069656c65722064657220616b746965766560008201527f6e2052756e646521000000000000000000000000000000000000000000000000602082015250565b6000612594602883612527565b915061259f82612538565b604082019050919050565b600060208201905081810360008301526125c381612587565b9050919050565b7f4e487b7100000000000000000000000000000000000000000000000000000000600052602160045260246000fd5b7f446965205761686c206b616e6e206e6f6368206e69636874206175666765646560008201527f636b742077657264656e21000000000000000000000000000000000000000000602082015250565b6000612655602b83612527565b9150612660826125f9565b604082019050919050565b6000602082019050818103600083015261268481612648565b9050919050565b6000819050919050565b6126a66126a182612137565b61268b565b82525050565b600081519050919050565b600081905092915050565b60005b838110156126e05780820151818401526020810190506126c5565b838111156126ef576000848401525b50505050565b6000612700826126ac565b61270a81856126b7565b935061271a8185602086016126c2565b80840191505092915050565b60006127328285612695565b60208201915061274282846126f5565b91508190509392505050565b7f447520626566696e64657374206469636820696d2066616c736368656e20537060008201527f69656c2d537461747573206f64657220646965205a65697420697374206e6f6360208201527f68206e6963687420616267656c617566656e2100000000000000000000000000604082015250565b60006127d0605383612527565b91506127db8261274e565b606082019050919050565b600060208201905081810360008301526127ff816127c3565b9050919050565b7f4e487b7100000000000000000000000000000000000000000000000000000000600052601160045260246000fd5b600061284082612137565b915061284b83612137565b9250817fffffffffffffffffffffffffffffffffffffffffffffffffffffffffffffffff048311821515161561288457612883612806565b5b828202905092915050565b600061289a82612137565b91506128a583612137565b9250828210156128b8576128b7612806565b5b828203905092915050565b7f5761686c206b616e6e206e6f6368206e6963687420676574726f6666656e207760008201527f657264656e206f646572207775726465206265726569747320676574726f666660208201527f656e210000000000000000000000000000000000000000000000000000000000604082015250565b6000612945604383612527565b9150612950826128c3565b606082019050919050565b6000602082019050818103600083015261297481612938565b9050919050565b600061298682612137565b915061299183612137565b9250827fffffffffffffffffffffffffffffffffffffffffffffffffffffffffffffffff038211156129c6576129c5612806565b5b828201905092915050565b7f44617320537069656c206861742062657265697473206265676f6e6e656e2100600082015250565b6000612a07601f83612527565b9150612a12826129d1565b602082019050919050565b60006020820190508181036000830152612a36816129fa565b9050919050565b7f4475206d757373742065696e656e2045696e7361747a20286d696e2e20302c3060008201527f30312045544829207365747a656e3b20646572206f776e65722065726861656c60208201527f7420302c3030302e312045544821000000000000000000000000000000000000604082015250565b6000612abf604e83612527565b9150612aca82612a3d565b606082019050919050565b60006020820190508181036000830152612aee81612ab2565b9050919050565b7f4475206b616e6e7374206e6963687420676567656e20646963682073656c627360008201527f7420737069656c656e2100000000000000000000000000000000000000000000602082015250565b6000612b51602a83612527565b9150612b5c82612af5565b604082019050919050565b60006020820190508181036000830152612b8081612b44565b9050919050565b7f4465696e20537069656c2d45696e7361747a206d7573732064656d20566f726760008201527f65676562656e656e20656e74737072656368656e210000000000000000000000602082015250565b6000612be3603583612527565b9150612bee82612b87565b604082019050919050565b60006020820190508181036000830152612c1281612bd6565b905091905056fea2646970667358221220fd38e9a7b763109d00c44ba9ca96c3c4e459b4dcf837d7f200ebac6e7ac3f21364736f6c634300080f0033",
  "immutableReferences": {},
  "source": "// SC fr das Spiel \"Schere, Stein, Papier\" als Ethereum DApp\r\n\r\n// SPDX-License-Identifier: GPL-3.0\r\n\r\npragma solidity ^0.8.7;\r\n\r\ncontract CloneFactory {\r\n\r\n  function createClone(address target) internal returns (address result) {\r\n    bytes20 targetBytes = bytes20(target);\r\n    assembly {\r\n      let clone := mload(0x40)\r\n      mstore(clone, 0x3d602d80600a3d3981f3363d3d373d3d3d363d73000000000000000000000000)\r\n      mstore(add(clone, 0x14), targetBytes)\r\n      mstore(add(clone, 0x28), 0x5af43d82803e903d91602b57fd5bf30000000000000000000000000000000000)\r\n      result := create(0, clone, 0x37)\r\n    }\r\n  }\r\n\r\n  function isClone(address target, address query) internal view returns (bool result) {\r\n    bytes20 targetBytes = bytes20(target);\r\n    assembly {\r\n      let clone := mload(0x40)\r\n      mstore(clone, 0x363d3d373d3d3d363d7300000000000000000000000000000000000000000000)\r\n      mstore(add(clone, 0xa), targetBytes)\r\n      mstore(add(clone, 0x1e), 0x5af43d82803e903d91602b57fd5bf30000000000000000000000000000000000)\r\n\r\n      let other := add(clone, 0x40)\r\n      extcodecopy(query, other, 0, 0x2d)\r\n      result := and(\r\n        eq(mload(clone), mload(other)),\r\n        eq(mload(add(clone, 0xd)), mload(add(other, 0xd)))\r\n      )\r\n    }\r\n  }\r\n}\r\n\r\ncontract Factory is CloneFactory {\r\n\r\n     address[] public childrenaddress;\r\n     address masterContract;\r\n     address public owner;\r\n\r\n     constructor(address _masterContract){\r\n         masterContract = _masterContract;\r\n         owner = msg.sender;\r\n     }\r\n\r\n    event Spielerzeugt(address Spieladdresse, address Factoryaddresse);\r\n\r\n    function createChild() external{\r\n        address child = createClone(masterContract);\r\n        childrenaddress.push(child);\r\n        emit Spielerzeugt(child, address(this));\r\n    }\r\n\r\n    /*function getAddress() public view returns(address) {\r\n        return address(this);\r\n    }*/\r\n\r\n    function ETHabheben() public  {\r\n        require (msg.sender == owner, \"Nur der Smart Contract owner/Betreiber ist berechtigt!\");\r\n        payable(owner).transfer(address(this).balance);\r\n    }\r\n\r\n    receive() external payable{}\r\n\r\n}\r\n\r\ncontract SchereSteinPapier {\r\n    \r\n    // speichern der Factory-Addresse\r\n    address payable public FactoryAddress;\r\n\r\n    // speichern der Spieler-Addressen\r\n    address [2] public Spieler;\r\n\r\n    // speichern des Spieleinsatzes\r\n    uint public Einsatz;\r\n\r\n    // speichern des verschlsselten Spiel-Zugs\r\n    bytes32[2] public VerschluesselterZug;\r\n \r\n    // speichern des entschlsselten Spiel-Zugs\r\n    // 0: initial\r\n    // 1: Schere\r\n    // 2: Stein\r\n    // 3: Papier\r\n    uint[2] public Zug;\r\n\r\n    // Spiel Status\r\n    enum Status {Beginn, Wahl, Entscheidung, Auszahlung}\r\n    Status status;\r\n\r\n    // Timer\r\n    uint public start;\r\n    uint public stop;\r\n    uint public start1;\r\n    uint public stop1;\r\n    uint public jetzt;\r\n\r\n    // event fr Einsatz\r\n    event EinsatzIst (uint Einsatz);\r\n\r\n    // event fr Gewinner\r\n    event GewinnerIst (address Gewinner);\r\n\r\n    // Modifier zum Prfen ob es sich um einen Spieler handelt\r\n    modifier IstSpieler() {\r\n        require (msg.sender == Spieler[0] || msg.sender == Spieler[1], \"Du bist kein Spieler der aktieven Runde!\");\r\n        _;\r\n    }\r\n\r\n    // Konstruktor legt owner fest und initialisiert Variablen\r\n    constructor() public {\r\n        initialisieren();\r\n    }\r\n\r\n    function init(address _FactoryAddress) external {\r\n        FactoryAddress = payable(_FactoryAddress);\r\n    }\r\n\r\n    // Funktion zum initialisieren des Spiels\r\n    function initialisieren() private {\r\n        Spieler[0] = payable(address(0));\r\n        Spieler[1] = payable(address(0));\r\n        VerschluesselterZug[0] = 0;\r\n        VerschluesselterZug[1] = 0;\r\n        Zug[0] = 0;\r\n        Zug[1] = 0;\r\n        status = Status.Beginn;\r\n    }\r\n\r\n    // Funktion zum Spiel-Beitritt\r\n    function spielen() public payable {\r\n         require (status == Status.Beginn, \"Das Spiel hat bereits begonnen!\");\r\n         require (msg.value > 1000000000000000, \"Du musst einen Einsatz (min. 0,001 ETH) setzen; der owner erhaelt 0,000.1 ETH!\");\r\n         if (Spieler[0] == address(0)) {\r\n             Einsatz = msg.value;\r\n             emit EinsatzIst(Einsatz);\r\n             Spieler[0] = payable(msg.sender);\r\n         }\r\n         else if (Spieler[1] == address(0)) {\r\n             require (msg.sender != Spieler[0], \"Du kannst nicht gegen dich selbst spielen!\");\r\n             require (msg.value == Einsatz, \"Dein Spiel-Einsatz muss dem Vorgegebenen entsprechen!\");\r\n             Spieler[1] = payable(msg.sender);\r\n             status = Status.Wahl;\r\n             start = block.timestamp;\r\n             stop = start + 30;\r\n         }\r\n    }\r\n\r\n    // Funktion zum Whlen von Schere, Stein oder Papier\r\n    function waehlen(bytes32 wahl) public IstSpieler {\r\n        require (status == Status.Wahl, \"Wahl kann noch nicht getroffen werden oder wurde bereits getroffen!\");\r\n        if (msg.sender == Spieler[0]) {\r\n            VerschluesselterZug[0] = wahl;\r\n        }\r\n        else if (msg.sender == Spieler[1]) {\r\n            VerschluesselterZug[1] = wahl;\r\n        }\r\n        if (VerschluesselterZug[0] != 0 && VerschluesselterZug[1] != 0) {\r\n            status = Status.Entscheidung;\r\n            start1 = block.timestamp;\r\n            stop1 = start1 + 900;\r\n        }\r\n    }\r\n\r\n    // Funktion deckt Wahl des Spielers auf\r\n    function wahlentschluesseln(uint wahl, string memory schluessel) public IstSpieler {\r\n        require (status == Status.Entscheidung, \"Die Wahl kann noch nicht aufgedeckt werden!\");\r\n        bytes32 verschluesselt = keccak256(abi.encodePacked(wahl, schluessel)); //keccak256 takes a hex argument and not a string\r\n        if (msg.sender == Spieler[0]) {\r\n            if (verschluesselt == VerschluesselterZug[0]) {\r\n                Zug[0] = wahl;\r\n            }\r\n        }\r\n        else {\r\n            if (verschluesselt == VerschluesselterZug[1]) {\r\n                Zug[1] = wahl;\r\n            }\r\n        }\r\n        if (Zug[0] != 0 && Zug[1] != 0) {\r\n            status = Status.Auszahlung;\r\n            entscheidung();\r\n        }\r\n    }\r\n\r\n    // Funktion zur Entscheidungsfindung des Spiels\r\n    function entscheidung() private {\r\n        require (status == Status.Auszahlung);\r\n        if (Zug[0] == 1) {\r\n            if (Zug[1] == 1) {\r\n                payable(Spieler[0]).transfer(Einsatz-100000000000000);\r\n                payable(Spieler[1]).transfer(Einsatz-100000000000000);\r\n            }\r\n            if (Zug[1] == 2) {\r\n                payable(Spieler[1]).transfer(2*Einsatz-200000000000000);\r\n                emit GewinnerIst(Spieler[1]);\r\n            }\r\n            if (Zug[1] == 3) {\r\n                payable(Spieler[0]).transfer(2*Einsatz-200000000000000);\r\n                emit GewinnerIst(Spieler[0]);\r\n            }\r\n        }\r\n        if (Zug[0] == 2) {\r\n            if (Zug[1] == 1) {\r\n                payable(Spieler[0]).transfer(2*Einsatz-200000000000000);\r\n                emit GewinnerIst(Spieler[0]);\r\n            }\r\n            if (Zug[1] == 2) {\r\n                payable(Spieler[0]).transfer(Einsatz-100000000000000);\r\n                payable(Spieler[1]).transfer(Einsatz-100000000000000);\r\n            }\r\n            if (Zug[1] == 3) {\r\n                payable(Spieler[1]).transfer(2*Einsatz-200000000000000);\r\n                emit GewinnerIst(Spieler[1]);\r\n            }\r\n        }\r\n        if (Zug[0] == 3) {\r\n            if (Zug[1] == 1) {\r\n                payable(Spieler[1]).transfer(2*Einsatz-200000000000000);\r\n                emit GewinnerIst(Spieler[1]);\r\n            }\r\n            if (Zug[1] == 2) {\r\n                payable(Spieler[0]).transfer(2*Einsatz-200000000000000);\r\n                emit GewinnerIst(Spieler[0]);\r\n            }\r\n            if (Zug[1] == 3) {\r\n                payable(Spieler[0]).transfer(Einsatz-100000000000000);\r\n                payable(Spieler[1]).transfer(Einsatz-100000000000000);\r\n            }\r\n        }\r\n        payable(FactoryAddress).transfer(address(this).balance); \r\n        initialisieren();\r\n    }\r\n\r\n    // Funktion zum Erstatten des Einsatzes\r\n    function erstatten() public IstSpieler {\r\n        jetzt = block.timestamp;\r\n        require ((status == Status.Wahl && stop < jetzt) || (status == Status.Entscheidung && stop1 < jetzt), \"Du befindest dich im falschen Spiel-Status oder die Zeit ist noch nicht abgelaufen!\");\r\n        if (stop < jetzt) {\r\n            if (VerschluesselterZug[0] == 0) {\r\n                payable(Spieler[1]).transfer(2*Einsatz-200000000000000);\r\n                initialisieren();\r\n            }\r\n            else if (VerschluesselterZug[1] == 0) {\r\n                payable(Spieler[0]).transfer(2*Einsatz-200000000000000);\r\n                initialisieren();\r\n            }\r\n            payable(FactoryAddress).transfer(address(this).balance);\r\n        }\r\n        else if (stop1 < jetzt) {\r\n            if (Zug[0] == 0) {\r\n                payable(Spieler[1]).transfer(2*Einsatz-200000000000000);\r\n                initialisieren();\r\n            }\r\n            else if (Zug[1] == 0) {\r\n                payable(Spieler[0]).transfer(2*Einsatz-200000000000000);\r\n                initialisieren();\r\n            }\r\n            payable(FactoryAddress).transfer(address(this).balance);\r\n        }\r\n    }\r\n}",
  "sourcePath": "C:\\Users\\pierr\\Desktop\\Blockchain\\Blockchain3\\SSPFPfinal\\contracts\\SchereSteinPapier.sol",
  "compiler": {
    "name": "solc",
    "version": "0.8.15+commit.e14f2714.Emscripten.clang"
  },
  "schemaVersion": "3.4.7",
  "updatedAt": "2022-07-01T15:14:17.436Z",
  "networkType": "ethereum",
  "devdoc": {
    "kind": "dev",
    "methods": {},
    "version": 1
  },
  "userdoc": {
    "kind": "user",
    "methods": {},
    "version": 1
  }
}